{"contracts/samples/SimpleAccount.sol":{"SimpleAccount":{"abi":[{"inputs":[{"internalType":"contract IEntryPoint","name":"anEntryPoint","type":"address"}],"stateMutability":"nonpayable","type":"constructor"},{"anonymous":false,"inputs":[{"indexed":false,"internalType":"address","name":"previousAdmin","type":"address"},{"indexed":false,"internalType":"address","name":"newAdmin","type":"address"}],"name":"AdminChanged","type":"event"},{"anonymous":false,"inputs":[{"indexed":true,"internalType":"address","name":"beacon","type":"address"}],"name":"BeaconUpgraded","type":"event"},{"anonymous":false,"inputs":[{"indexed":false,"internalType":"uint8","name":"version","type":"uint8"}],"name":"Initialized","type":"event"},{"anonymous":false,"inputs":[{"indexed":true,"internalType":"contract IEntryPoint","name":"entryPoint","type":"address"},{"indexed":true,"internalType":"address","name":"owner","type":"address"}],"name":"SimpleAccountInitialized","type":"event"},{"anonymous":false,"inputs":[{"indexed":true,"internalType":"address","name":"implementation","type":"address"}],"name":"Upgraded","type":"event"},{"inputs":[],"name":"addDeposit","outputs":[],"stateMutability":"payable","type":"function"},{"inputs":[],"name":"entryPoint","outputs":[{"internalType":"contract IEntryPoint","name":"","type":"address"}],"stateMutability":"view","type":"function"},{"inputs":[{"internalType":"address","name":"dest","type":"address"},{"internalType":"uint256","name":"value","type":"uint256"},{"internalType":"bytes","name":"func","type":"bytes"}],"name":"execute","outputs":[],"stateMutability":"nonpayable","type":"function"},{"inputs":[{"internalType":"address[]","name":"dest","type":"address[]"},{"internalType":"bytes[]","name":"func","type":"bytes[]"}],"name":"executeBatch","outputs":[],"stateMutability":"nonpayable","type":"function"},{"inputs":[],"name":"getDeposit","outputs":[{"internalType":"uint256","name":"","type":"uint256"}],"stateMutability":"view","type":"function"},{"inputs":[],"name":"getNonce","outputs":[{"internalType":"uint256","name":"","type":"uint256"}],"stateMutability":"view","type":"function"},{"inputs":[{"internalType":"address","name":"anOwner","type":"address"}],"name":"initialize","outputs":[],"stateMutability":"nonpayable","type":"function"},{"inputs":[{"internalType":"address","name":"","type":"address"},{"internalType":"address","name":"","type":"address"},{"internalType":"uint256[]","name":"","type":"uint256[]"},{"internalType":"uint256[]","name":"","type":"uint256[]"},{"internalType":"bytes","name":"","type":"bytes"}],"name":"onERC1155BatchReceived","outputs":[{"internalType":"bytes4","name":"","type":"bytes4"}],"stateMutability":"pure","type":"function"},{"inputs":[{"internalType":"address","name":"","type":"address"},{"internalType":"address","name":"","type":"address"},{"internalType":"uint256","name":"","type":"uint256"},{"internalType":"uint256","name":"","type":"uint256"},{"internalType":"bytes","name":"","type":"bytes"}],"name":"onERC1155Received","outputs":[{"internalType":"bytes4","name":"","type":"bytes4"}],"stateMutability":"pure","type":"function"},{"inputs":[{"internalType":"address","name":"","type":"address"},{"internalType":"address","name":"","type":"address"},{"internalType":"uint256","name":"","type":"uint256"},{"internalType":"bytes","name":"","type":"bytes"}],"name":"onERC721Received","outputs":[{"internalType":"bytes4","name":"","type":"bytes4"}],"stateMutability":"pure","type":"function"},{"inputs":[],"name":"owner","outputs":[{"internalType":"address","name":"","type":"address"}],"stateMutability":"view","type":"function"},{"inputs":[],"name":"proxiableUUID","outputs":[{"internalType":"bytes32","name":"","type":"bytes32"}],"stateMutability":"view","type":"function"},{"inputs":[{"internalType":"bytes4","name":"interfaceId","type":"bytes4"}],"name":"supportsInterface","outputs":[{"internalType":"bool","name":"","type":"bool"}],"stateMutability":"view","type":"function"},{"inputs":[{"internalType":"address","name":"","type":"address"},{"internalType":"address","name":"","type":"address"},{"internalType":"address","name":"","type":"address"},{"internalType":"uint256","name":"","type":"uint256"},{"internalType":"bytes","name":"","type":"bytes"},{"internalType":"bytes","name":"","type":"bytes"}],"name":"tokensReceived","outputs":[],"stateMutability":"pure","type":"function"},{"inputs":[{"internalType":"address","name":"newImplementation","type":"address"}],"name":"upgradeTo","outputs":[],"stateMutability":"nonpayable","type":"function"},{"inputs":[{"internalType":"address","name":"newImplementation","type":"address"},{"internalType":"bytes","name":"data","type":"bytes"}],"name":"upgradeToAndCall","outputs":[],"stateMutability":"payable","type":"function"},{"inputs":[{"components":[{"internalType":"address","name":"sender","type":"address"},{"internalType":"uint256","name":"nonce","type":"uint256"},{"internalType":"bytes","name":"initCode","type":"bytes"},{"internalType":"bytes","name":"callData","type":"bytes"},{"internalType":"uint256","name":"callGasLimit","type":"uint256"},{"internalType":"uint256","name":"verificationGasLimit","type":"uint256"},{"internalType":"uint256","name":"preVerificationGas","type":"uint256"},{"internalType":"uint256","name":"maxFeePerGas","type":"uint256"},{"internalType":"uint256","name":"maxPriorityFeePerGas","type":"uint256"},{"internalType":"bytes","name":"paymasterAndData","type":"bytes"},{"internalType":"bytes","name":"signature","type":"bytes"}],"internalType":"struct UserOperation","name":"userOp","type":"tuple"},{"internalType":"bytes32","name":"userOpHash","type":"bytes32"},{"internalType":"uint256","name":"missingAccountFunds","type":"uint256"}],"name":"validateUserOp","outputs":[{"internalType":"uint256","name":"validationData","type":"uint256"}],"stateMutability":"nonpayable","type":"function"},{"inputs":[{"internalType":"address payable","name":"withdrawAddress","type":"address"},{"internalType":"uint256","name":"amount","type":"uint256"}],"name":"withdrawDepositTo","outputs":[],"stateMutability":"nonpayable","type":"function"},{"stateMutability":"payable","type":"receive"}],"evm":{"bytecode":{"linkReferences":{},"object":"60c0346200016857601f620021d738819003918201601f19168301916001600160401b038311848410176200016d578084926020946040528339810103126200016857516001600160a01b038116810362000168573060805260a05260005460ff8160081c16620001135760ff80821610620000d7575b604051612053908162000184823960805181818161059201528181610bb30152610d8f015260a0518181816107b0015281816108a80152818161098701528181610f04015281816110f70152818161133201528181611b500152611baf0152f35b60ff90811916176000557f7f26b83ff96e1f2b6a682f133852f6798a09c465da95921460cefb3847402498602060405160ff8152a13862000076565b60405162461bcd60e51b815260206004820152602760248201527f496e697469616c697a61626c653a20636f6e747261637420697320696e697469604482015266616c697a696e6760c81b6064820152608490fd5b600080fd5b634e487b7160e01b600052604160045260246000fdfe6080604052600436101561001b575b361561001957600080fd5b005b60003560e01c806223de291461013a57806301ffc9a714610135578063150b7a021461013057806318dfb3c71461012b5780633659cfe6146101265780633a871cdd146101215780634a58db191461011c5780634d44560d146101175780634f1ef2861461011257806352d1902d1461010d5780638da5cb5b14610108578063b0d691fe14610103578063b61d27f6146100fe578063bc197c81146100f9578063c399ec88146100f4578063c4d66de8146100ef578063d087d288146100ea5763f23a6e610361000e57611395565b6112b3565b611150565b61107f565b610fb8565b610f28565b610eb9565b610e64565b610d49565b610b32565b610929565b610866565b610749565b61053e565b6103cd565b61030b565b61021b565b610190565b73ffffffffffffffffffffffffffffffffffffffff81160361015d57565b600080fd5b9181601f8401121561015d5782359167ffffffffffffffff831161015d576020838186019501011161015d57565b3461015d5760c07ffffffffffffffffffffffffffffffffffffffffffffffffffffffffffffffffc36011261015d576101ca60043561013f565b6101d560243561013f565b6101e060443561013f565b67ffffffffffffffff60843581811161015d57610201903690600401610162565b505060a43590811161015d57610019903690600401610162565b3461015d5760207ffffffffffffffffffffffffffffffffffffffffffffffffffffffffffffffffc36011261015d576004357fffffffff00000000000000000000000000000000000000000000000000000000811680910361015d57807f150b7a0200000000000000000000000000000000000000000000000000000000602092149081156102e1575b81156102b7575b506040519015158152f35b7f01ffc9a700000000000000000000000000000000000000000000000000000000915014386102ac565b7f4e2312e000000000000000000000000000000000000000000000000000000000811491506102a5565b3461015d5760807ffffffffffffffffffffffffffffffffffffffffffffffffffffffffffffffffc36011261015d5761034560043561013f565b61035060243561013f565b60643567ffffffffffffffff811161015d57610370903690600401610162565b505060206040517f150b7a02000000000000000000000000000000000000000000000000000000008152f35b9181601f8401121561015d5782359167ffffffffffffffff831161015d576020808501948460051b01011161015d57565b3461015d5760407ffffffffffffffffffffffffffffffffffffffffffffffffffffffffffffffffc36011261015d5767ffffffffffffffff6004803582811161015d5761041d903690830161039c565b602492919293843590811161015d57610439903690840161039c565b610441611b97565b8083036104e15760005b83811061045457005b61048561046a61046583878a6119d5565b6119ea565b61047f610478848688611a45565b3691610afb565b90611f6a565b7fffffffffffffffffffffffffffffffffffffffffffffffffffffffffffffffff81146104b45760010161044b565b866011867f4e487b7100000000000000000000000000000000000000000000000000000000600052526000fd5b6064846013886020604051937f08c379a00000000000000000000000000000000000000000000000000000000085528401528201527f77726f6e67206172726179206c656e67746873000000000000000000000000006044820152fd5b3461015d5760207ffffffffffffffffffffffffffffffffffffffffffffffffffffffffffffffffc36011261015d576004356105798161013f565b73ffffffffffffffffffffffffffffffffffffffff90817f000000000000000000000000000000000000000000000000000000000000000016916105bf83301415611426565b6105ee7f360894a13ba1a3210667c828492db98dca3e2076cc3735a920a3ca505d382bbc9382855416146114b1565b6105f6611f8a565b6040519061060382610a48565b600082527f4910fdfa16fed3260ed0e7147f7cc6da11a60208b5b9406d12a635614ffd91435460ff161561063d57505061001991506115e2565b6020600491604094939451928380927f52d1902d00000000000000000000000000000000000000000000000000000000825286165afa60009181610719575b50610706576040517f08c379a000000000000000000000000000000000000000000000000000000000815260206004820152602e60248201527f45524331393637557067726164653a206e657720696d706c656d656e7461746960448201527f6f6e206973206e6f7420555550530000000000000000000000000000000000006064820152608490fd5b610019936107149114611557565b6116ce565b61073b91925060203d8111610742575b6107338183610a80565b81019061153c565b903861067c565b503d610729565b3461015d577ffffffffffffffffffffffffffffffffffffffffffffffffffffffffffffffffc60608136011261015d576004359067ffffffffffffffff821161015d5761016090823603011261015d5773ffffffffffffffffffffffffffffffffffffffff7f0000000000000000000000000000000000000000000000000000000000000000163303610808576107e96108049160243590600401611c50565b6107f460443561196c565b6040519081529081906020820190565b0390f35b60646040517f08c379a000000000000000000000000000000000000000000000000000000000815260206004820152601c60248201527f6163636f756e743a206e6f742066726f6d20456e747279506f696e74000000006044820152fd5b6000807ffffffffffffffffffffffffffffffffffffffffffffffffffffffffffffffffc3601126109265773ffffffffffffffffffffffffffffffffffffffff7f00000000000000000000000000000000000000000000000000000000000000001681813b1561092657602491604051928380927fb760faf900000000000000000000000000000000000000000000000000000000825230600483015234905af1801561092157610915575080f35b61091e90610a2f565b80f35b61154b565b80fd5b3461015d57600060407ffffffffffffffffffffffffffffffffffffffffffffffffffffffffffffffffc360112610926576004356109668161013f565b61096e611f8a565b8173ffffffffffffffffffffffffffffffffffffffff807f00000000000000000000000000000000000000000000000000000000000000001692833b156109fc576044908360405195869485937f205c287800000000000000000000000000000000000000000000000000000000855216600484015260243560248401525af1801561092157610915575080f35b8280fd5b7f4e487b7100000000000000000000000000000000000000000000000000000000600052604160045260246000fd5b67ffffffffffffffff8111610a4357604052565b610a00565b6020810190811067ffffffffffffffff821117610a4357604052565b6060810190811067ffffffffffffffff821117610a4357604052565b90601f7fffffffffffffffffffffffffffffffffffffffffffffffffffffffffffffffe0910116810190811067ffffffffffffffff821117610a4357604052565b67ffffffffffffffff8111610a4357601f017fffffffffffffffffffffffffffffffffffffffffffffffffffffffffffffffe01660200190565b929192610b0782610ac1565b91610b156040519384610a80565b82948184528183011161015d578281602093846000960137010152565b60407ffffffffffffffffffffffffffffffffffffffffffffffffffffffffffffffffc36011261015d57600435610b688161013f565b60243567ffffffffffffffff811161015d573660238201121561015d57610b99903690602481600401359101610afb565b9073ffffffffffffffffffffffffffffffffffffffff91827f00000000000000000000000000000000000000000000000000000000000000001692610be084301415611426565b610c0f7f360894a13ba1a3210667c828492db98dca3e2076cc3735a920a3ca505d382bbc9482865416146114b1565b610c17611f8a565b7f4910fdfa16fed3260ed0e7147f7cc6da11a60208b5b9406d12a635614ffd91435460ff1615610c4d57505061001991506115e2565b6020600491604094939451928380927f52d1902d00000000000000000000000000000000000000000000000000000000825286165afa60009181610d29575b50610d16576040517f08c379a000000000000000000000000000000000000000000000000000000000815260206004820152602e60248201527f45524331393637557067726164653a206e657720696d706c656d656e7461746960448201527f6f6e206973206e6f7420555550530000000000000000000000000000000000006064820152608490fd5b61001993610d249114611557565b6117ad565b610d4291925060203d8111610742576107338183610a80565b9038610c8c565b3461015d5760007ffffffffffffffffffffffffffffffffffffffffffffffffffffffffffffffffc36011261015d5773ffffffffffffffffffffffffffffffffffffffff7f0000000000000000000000000000000000000000000000000000000000000000163003610de0576040517f360894a13ba1a3210667c828492db98dca3e2076cc3735a920a3ca505d382bbc8152602090f35b60846040517f08c379a000000000000000000000000000000000000000000000000000000000815260206004820152603860248201527f555550535570677261646561626c653a206d757374206e6f742062652063616c60448201527f6c6564207468726f7567682064656c656761746563616c6c00000000000000006064820152fd5b3461015d5760007ffffffffffffffffffffffffffffffffffffffffffffffffffffffffffffffffc36011261015d57602073ffffffffffffffffffffffffffffffffffffffff60005460101c16604051908152f35b3461015d5760007ffffffffffffffffffffffffffffffffffffffffffffffffffffffffffffffffc36011261015d57602060405173ffffffffffffffffffffffffffffffffffffffff7f0000000000000000000000000000000000000000000000000000000000000000168152f35b3461015d5760607ffffffffffffffffffffffffffffffffffffffffffffffffffffffffffffffffc36011261015d57600435610f638161013f565b60443567ffffffffffffffff811161015d57600091610f92610f8a84933690600401610162565b610478611b97565b9060208251920190602435905af1610fa861180d565b9015610fb057005b602081519101fd5b3461015d5760a07ffffffffffffffffffffffffffffffffffffffffffffffffffffffffffffffffc36011261015d57610ff260043561013f565b610ffd60243561013f565b67ffffffffffffffff60443581811161015d5761101e90369060040161039c565b505060643581811161015d5761103890369060040161039c565b505060843590811161015d57611052903690600401610162565b50506040517fbc197c81000000000000000000000000000000000000000000000000000000008152602090f35b3461015d5760007ffffffffffffffffffffffffffffffffffffffffffffffffffffffffffffffffc36011261015d576040517f70a0823100000000000000000000000000000000000000000000000000000000815230600482015260208160248173ffffffffffffffffffffffffffffffffffffffff7f0000000000000000000000000000000000000000000000000000000000000000165afa801561092157602091600091611133575b50604051908152f35b61114a9150823d8111610742576107338183610a80565b3861112a565b3461015d5760207ffffffffffffffffffffffffffffffffffffffffffffffffffffffffffffffffc36011261015d5760043561118b8161013f565b6111ed600054916111b360ff8460081c1615809481956112a5575b8115611285575b50611a60565b826111e460017fffffffffffffffffffffffffffffffffffffffffffffffffffffffffffffff006000541617600055565b61124f57611aeb565b6111f357005b6112207fffffffffffffffffffffffffffffffffffffffffffffffffffffffffffff00ff60005416600055565b604051600181527f7f26b83ff96e1f2b6a682f133852f6798a09c465da95921460cefb384740249890602090a1005b6112806101007fffffffffffffffffffffffffffffffffffffffffffffffffffffffffffff00ff6000541617600055565b611aeb565b303b15915081611297575b50386111ad565b6001915060ff161438611290565b600160ff82161091506111a6565b3461015d5760007ffffffffffffffffffffffffffffffffffffffffffffffffffffffffffffffffc36011261015d576040517f35567e1a0000000000000000000000000000000000000000000000000000000081523060048201526000602482015260208160448173ffffffffffffffffffffffffffffffffffffffff7f0000000000000000000000000000000000000000000000000000000000000000165afa80156109215761080491600091611377575b506040519081529081906020820190565b61138f915060203d8111610742576107338183610a80565b38611366565b3461015d5760a07ffffffffffffffffffffffffffffffffffffffffffffffffffffffffffffffffc36011261015d576113cf60043561013f565b6113da60243561013f565b60843567ffffffffffffffff811161015d576113fa903690600401610162565b505060206040517ff23a6e61000000000000000000000000000000000000000000000000000000008152f35b1561142d57565b60846040517f08c379a000000000000000000000000000000000000000000000000000000000815260206004820152602c60248201527f46756e6374696f6e206d7573742062652063616c6c6564207468726f7567682060448201527f64656c656761746563616c6c00000000000000000000000000000000000000006064820152fd5b156114b857565b60846040517f08c379a000000000000000000000000000000000000000000000000000000000815260206004820152602c60248201527f46756e6374696f6e206d7573742062652063616c6c6564207468726f7567682060448201527f6163746976652070726f787900000000000000000000000000000000000000006064820152fd5b9081602091031261015d575190565b6040513d6000823e3d90fd5b1561155e57565b60846040517f08c379a000000000000000000000000000000000000000000000000000000000815260206004820152602960248201527f45524331393637557067726164653a20756e737570706f727465642070726f7860448201527f6961626c655555494400000000000000000000000000000000000000000000006064820152fd5b803b1561164a5773ffffffffffffffffffffffffffffffffffffffff7f360894a13ba1a3210667c828492db98dca3e2076cc3735a920a3ca505d382bbc91167fffffffffffffffffffffffff0000000000000000000000000000000000000000825416179055565b60846040517f08c379a000000000000000000000000000000000000000000000000000000000815260206004820152602d60248201527f455243313936373a206e657720696d706c656d656e746174696f6e206973206e60448201527f6f74206120636f6e7472616374000000000000000000000000000000000000006064820152fd5b906116d8826115e2565b73ffffffffffffffffffffffffffffffffffffffff82167fbc7cd75a20ee27fd9adebab32041f755214dbc6bffa90cc0225b39da2e5c2d3b600080a28051158015906117a5575b611727575050565b6117a2916000806040519361173b85610a64565b602785527f416464726573733a206c6f772d6c6576656c2064656c65676174652063616c6c60208601527f206661696c6564000000000000000000000000000000000000000000000000006040860152602081519101845af461179c61180d565b916118a2565b50565b50600061171f565b906117b7826115e2565b73ffffffffffffffffffffffffffffffffffffffff82167fbc7cd75a20ee27fd9adebab32041f755214dbc6bffa90cc0225b39da2e5c2d3b600080a280511580159061180557611727575050565b50600161171f565b3d15611838573d9061181e82610ac1565b9161182c6040519384610a80565b82523d6000602084013e565b606090565b1561184457565b60646040517f08c379a000000000000000000000000000000000000000000000000000000000815260206004820152601d60248201527f416464726573733a2063616c6c20746f206e6f6e2d636f6e74726163740000006044820152fd5b919290156118c557508151156118b6575090565b6118c2903b151561183d565b90565b8251909150156118d85750805190602001fd5b604051907f08c379a000000000000000000000000000000000000000000000000000000000825281602080600483015282519283602484015260005b848110611955575050507fffffffffffffffffffffffffffffffffffffffffffffffffffffffffffffffe0601f836000604480968601015201168101030190fd5b818101830151868201604401528593508201611914565b806119745750565b600080808093337ffffffffffffffffffffffffffffffffffffffffffffffffffffffffffffffffff1506117a261180d565b7f4e487b7100000000000000000000000000000000000000000000000000000000600052603260045260246000fd5b91908110156119e55760051b0190565b6119a6565b356118c28161013f565b9035907fffffffffffffffffffffffffffffffffffffffffffffffffffffffffffffffe18136030182121561015d570180359067ffffffffffffffff821161015d5760200191813603831361015d57565b908210156119e557611a5c9160051b8101906119f4565b9091565b15611a6757565b60846040517f08c379a000000000000000000000000000000000000000000000000000000000815260206004820152602e60248201527f496e697469616c697a61626c653a20636f6e747261637420697320616c72656160448201527f647920696e697469616c697a65640000000000000000000000000000000000006064820152fd5b7fffffffffffffffffffff0000000000000000000000000000000000000000ffff75ffffffffffffffffffffffffffffffffffffffff00006000549260101b169116178060005573ffffffffffffffffffffffffffffffffffffffff809160101c16907f0000000000000000000000000000000000000000000000000000000000000000167f47e55c76e7a6f1fd8996a1da8008c1ea29699cca35e7bcd057f2dec313b6e5de600080a3565b73ffffffffffffffffffffffffffffffffffffffff807f0000000000000000000000000000000000000000000000000000000000000000163314908115611c3f575b5015611be157565b60646040517f08c379a000000000000000000000000000000000000000000000000000000000815260206004820152602060248201527f6163636f756e743a206e6f74204f776e6572206f7220456e747279506f696e746044820152fd5b905060005460101c16331438611bd9565b9060405160208101917f19457468657265756d205369676e6564204d6573736167653a0a3332000000008352603c820152603c8152611c8e81610a64565b519020611cd5611ccd73ffffffffffffffffffffffffffffffffffffffff92611cc76104788560005460101c16966101408101906119f4565b90611ea7565b919091611d1e565b1603611ce057600090565b600190565b60051115611cef57565b7f4e487b7100000000000000000000000000000000000000000000000000000000600052602160045260246000fd5b611d2781611ce5565b80611d2f5750565b611d3881611ce5565b60018103611d9f576040517f08c379a000000000000000000000000000000000000000000000000000000000815260206004820152601860248201527f45434453413a20696e76616c6964207369676e617475726500000000000000006044820152606490fd5b611da881611ce5565b60028103611e0f576040517f08c379a000000000000000000000000000000000000000000000000000000000815260206004820152601f60248201527f45434453413a20696e76616c6964207369676e6174757265206c656e677468006044820152606490fd5b80611e1b600392611ce5565b14611e2257565b6040517f08c379a000000000000000000000000000000000000000000000000000000000815260206004820152602260248201527f45434453413a20696e76616c6964207369676e6174757265202773272076616c60448201527f75650000000000000000000000000000000000000000000000000000000000006064820152608490fd5b906041815114600014611ed157611a5c916020820151906060604084015193015160001a90611edb565b5050600090600290565b9291907f7fffffffffffffffffffffffffffffff5d576e7357a4501ddfe92f46681b20a08311611f5e5791608094939160ff602094604051948552168484015260408301526060820152600093849182805260015afa1561092157815173ffffffffffffffffffffffffffffffffffffffff811615611f58579190565b50600190565b50505050600090600390565b600091829182602083519301915af1611f8161180d565b9015610fb05750565b73ffffffffffffffffffffffffffffffffffffffff60005460101c1633148015612014575b15611fb657565b60646040517f08c379a000000000000000000000000000000000000000000000000000000000815260206004820152600a60248201527f6f6e6c79206f776e6572000000000000000000000000000000000000000000006044820152fd5b50303314611faf56fea26469706673582212206ca5e7a9a48e8442fbdf39bedac0512e9ced272397ae3cb3b5e3d2a69c3e42a664736f6c63430008120033","opcodes":"PUSH1 0xC0 CALLVALUE PUSH3 0x168 JUMPI PUSH1 0x1F PUSH3 0x21D7 CODESIZE DUP2 SWAP1 SUB SWAP2 DUP3 ADD PUSH1 0x1F NOT AND DUP4 ADD SWAP2 PUSH1 0x1 PUSH1 0x1 PUSH1 0x40 SHL SUB DUP4 GT DUP5 DUP5 LT OR PUSH3 0x16D JUMPI DUP1 DUP5 SWAP3 PUSH1 0x20 SWAP5 PUSH1 0x40 MSTORE DUP4 CODECOPY DUP2 ADD SUB SLT PUSH3 0x168 JUMPI MLOAD PUSH1 0x1 PUSH1 0x1 PUSH1 0xA0 SHL SUB DUP2 AND DUP2 SUB PUSH3 0x168 JUMPI ADDRESS PUSH1 0x80 MSTORE PUSH1 0xA0 MSTORE PUSH1 0x0 SLOAD PUSH1 0xFF DUP2 PUSH1 0x8 SHR AND PUSH3 0x113 JUMPI PUSH1 0xFF DUP1 DUP3 AND LT PUSH3 0xD7 JUMPI JUMPDEST PUSH1 0x40 MLOAD PUSH2 0x2053 SWAP1 DUP2 PUSH3 0x184 DUP3 CODECOPY PUSH1 0x80 MLOAD DUP2 DUP2 DUP2 PUSH2 0x592 ADD MSTORE DUP2 DUP2 PUSH2 0xBB3 ADD MSTORE PUSH2 0xD8F ADD MSTORE PUSH1 0xA0 MLOAD DUP2 DUP2 DUP2 PUSH2 0x7B0 ADD MSTORE DUP2 DUP2 PUSH2 0x8A8 ADD MSTORE DUP2 DUP2 PUSH2 0x987 ADD MSTORE DUP2 DUP2 PUSH2 0xF04 ADD MSTORE DUP2 DUP2 PUSH2 0x10F7 ADD MSTORE DUP2 DUP2 PUSH2 0x1332 ADD MSTORE DUP2 DUP2 PUSH2 0x1B50 ADD MSTORE PUSH2 0x1BAF ADD MSTORE RETURN JUMPDEST PUSH1 0xFF SWAP1 DUP2 NOT AND OR PUSH1 0x0 SSTORE PUSH32 0x7F26B83FF96E1F2B6A682F133852F6798A09C465DA95921460CEFB3847402498 PUSH1 0x20 PUSH1 0x40 MLOAD PUSH1 0xFF DUP2 MSTORE LOG1 CODESIZE PUSH3 0x76 JUMP JUMPDEST PUSH1 0x40 MLOAD PUSH3 0x461BCD PUSH1 0xE5 SHL DUP2 MSTORE PUSH1 0x20 PUSH1 0x4 DUP3 ADD MSTORE PUSH1 0x27 PUSH1 0x24 DUP3 ADD MSTORE PUSH32 0x496E697469616C697A61626C653A20636F6E747261637420697320696E697469 PUSH1 0x44 DUP3 ADD MSTORE PUSH7 0x616C697A696E67 PUSH1 0xC8 SHL PUSH1 0x64 DUP3 ADD MSTORE PUSH1 0x84 SWAP1 REVERT JUMPDEST PUSH1 0x0 DUP1 REVERT JUMPDEST PUSH4 0x4E487B71 PUSH1 0xE0 SHL PUSH1 0x0 MSTORE PUSH1 0x41 PUSH1 0x4 MSTORE PUSH1 0x24 PUSH1 0x0 REVERT INVALID PUSH1 0x80 PUSH1 0x40 MSTORE PUSH1 0x4 CALLDATASIZE LT ISZERO PUSH2 0x1B JUMPI JUMPDEST CALLDATASIZE ISZERO PUSH2 0x19 JUMPI PUSH1 0x0 DUP1 REVERT JUMPDEST STOP JUMPDEST PUSH1 0x0 CALLDATALOAD PUSH1 0xE0 SHR DUP1 PUSH3 0x23DE29 EQ PUSH2 0x13A JUMPI DUP1 PUSH4 0x1FFC9A7 EQ PUSH2 0x135 JUMPI DUP1 PUSH4 0x150B7A02 EQ PUSH2 0x130 JUMPI DUP1 PUSH4 0x18DFB3C7 EQ PUSH2 0x12B JUMPI DUP1 PUSH4 0x3659CFE6 EQ PUSH2 0x126 JUMPI DUP1 PUSH4 0x3A871CDD EQ PUSH2 0x121 JUMPI DUP1 PUSH4 0x4A58DB19 EQ PUSH2 0x11C JUMPI DUP1 PUSH4 0x4D44560D EQ PUSH2 0x117 JUMPI DUP1 PUSH4 0x4F1EF286 EQ PUSH2 0x112 JUMPI DUP1 PUSH4 0x52D1902D EQ PUSH2 0x10D JUMPI DUP1 PUSH4 0x8DA5CB5B EQ PUSH2 0x108 JUMPI DUP1 PUSH4 0xB0D691FE EQ PUSH2 0x103 JUMPI DUP1 PUSH4 0xB61D27F6 EQ PUSH2 0xFE JUMPI DUP1 PUSH4 0xBC197C81 EQ PUSH2 0xF9 JUMPI DUP1 PUSH4 0xC399EC88 EQ PUSH2 0xF4 JUMPI DUP1 PUSH4 0xC4D66DE8 EQ PUSH2 0xEF JUMPI DUP1 PUSH4 0xD087D288 EQ PUSH2 0xEA JUMPI PUSH4 0xF23A6E61 SUB PUSH2 0xE JUMPI PUSH2 0x1395 JUMP JUMPDEST PUSH2 0x12B3 JUMP JUMPDEST PUSH2 0x1150 JUMP JUMPDEST PUSH2 0x107F JUMP JUMPDEST PUSH2 0xFB8 JUMP JUMPDEST PUSH2 0xF28 JUMP JUMPDEST PUSH2 0xEB9 JUMP JUMPDEST PUSH2 0xE64 JUMP JUMPDEST PUSH2 0xD49 JUMP JUMPDEST PUSH2 0xB32 JUMP JUMPDEST PUSH2 0x929 JUMP JUMPDEST PUSH2 0x866 JUMP JUMPDEST PUSH2 0x749 JUMP JUMPDEST PUSH2 0x53E JUMP JUMPDEST PUSH2 0x3CD JUMP JUMPDEST PUSH2 0x30B JUMP JUMPDEST PUSH2 0x21B JUMP JUMPDEST PUSH2 0x190 JUMP JUMPDEST PUSH20 0xFFFFFFFFFFFFFFFFFFFFFFFFFFFFFFFFFFFFFFFF DUP2 AND SUB PUSH2 0x15D JUMPI JUMP JUMPDEST PUSH1 0x0 DUP1 REVERT JUMPDEST SWAP2 DUP2 PUSH1 0x1F DUP5 ADD SLT ISZERO PUSH2 0x15D JUMPI DUP3 CALLDATALOAD SWAP2 PUSH8 0xFFFFFFFFFFFFFFFF DUP4 GT PUSH2 0x15D JUMPI PUSH1 0x20 DUP4 DUP2 DUP7 ADD SWAP6 ADD ADD GT PUSH2 0x15D JUMPI JUMP JUMPDEST CALLVALUE PUSH2 0x15D JUMPI PUSH1 0xC0 PUSH32 0xFFFFFFFFFFFFFFFFFFFFFFFFFFFFFFFFFFFFFFFFFFFFFFFFFFFFFFFFFFFFFFFC CALLDATASIZE ADD SLT PUSH2 0x15D JUMPI PUSH2 0x1CA PUSH1 0x4 CALLDATALOAD PUSH2 0x13F JUMP JUMPDEST PUSH2 0x1D5 PUSH1 0x24 CALLDATALOAD PUSH2 0x13F JUMP JUMPDEST PUSH2 0x1E0 PUSH1 0x44 CALLDATALOAD PUSH2 0x13F JUMP JUMPDEST PUSH8 0xFFFFFFFFFFFFFFFF PUSH1 0x84 CALLDATALOAD DUP2 DUP2 GT PUSH2 0x15D JUMPI PUSH2 0x201 SWAP1 CALLDATASIZE SWAP1 PUSH1 0x4 ADD PUSH2 0x162 JUMP JUMPDEST POP POP PUSH1 0xA4 CALLDATALOAD SWAP1 DUP2 GT PUSH2 0x15D JUMPI PUSH2 0x19 SWAP1 CALLDATASIZE SWAP1 PUSH1 0x4 ADD PUSH2 0x162 JUMP JUMPDEST CALLVALUE PUSH2 0x15D JUMPI PUSH1 0x20 PUSH32 0xFFFFFFFFFFFFFFFFFFFFFFFFFFFFFFFFFFFFFFFFFFFFFFFFFFFFFFFFFFFFFFFC CALLDATASIZE ADD SLT PUSH2 0x15D JUMPI PUSH1 0x4 CALLDATALOAD PUSH32 0xFFFFFFFF00000000000000000000000000000000000000000000000000000000 DUP2 AND DUP1 SWAP2 SUB PUSH2 0x15D JUMPI DUP1 PUSH32 0x150B7A0200000000000000000000000000000000000000000000000000000000 PUSH1 0x20 SWAP3 EQ SWAP1 DUP2 ISZERO PUSH2 0x2E1 JUMPI JUMPDEST DUP2 ISZERO PUSH2 0x2B7 JUMPI JUMPDEST POP PUSH1 0x40 MLOAD SWAP1 ISZERO ISZERO DUP2 MSTORE RETURN JUMPDEST PUSH32 0x1FFC9A700000000000000000000000000000000000000000000000000000000 SWAP2 POP EQ CODESIZE PUSH2 0x2AC JUMP JUMPDEST PUSH32 0x4E2312E000000000000000000000000000000000000000000000000000000000 DUP2 EQ SWAP2 POP PUSH2 0x2A5 JUMP JUMPDEST CALLVALUE PUSH2 0x15D JUMPI PUSH1 0x80 PUSH32 0xFFFFFFFFFFFFFFFFFFFFFFFFFFFFFFFFFFFFFFFFFFFFFFFFFFFFFFFFFFFFFFFC CALLDATASIZE ADD SLT PUSH2 0x15D JUMPI PUSH2 0x345 PUSH1 0x4 CALLDATALOAD PUSH2 0x13F JUMP JUMPDEST PUSH2 0x350 PUSH1 0x24 CALLDATALOAD PUSH2 0x13F JUMP JUMPDEST PUSH1 0x64 CALLDATALOAD PUSH8 0xFFFFFFFFFFFFFFFF DUP2 GT PUSH2 0x15D JUMPI PUSH2 0x370 SWAP1 CALLDATASIZE SWAP1 PUSH1 0x4 ADD PUSH2 0x162 JUMP JUMPDEST POP POP PUSH1 0x20 PUSH1 0x40 MLOAD PUSH32 0x150B7A0200000000000000000000000000000000000000000000000000000000 DUP2 MSTORE RETURN JUMPDEST SWAP2 DUP2 PUSH1 0x1F DUP5 ADD SLT ISZERO PUSH2 0x15D JUMPI DUP3 CALLDATALOAD SWAP2 PUSH8 0xFFFFFFFFFFFFFFFF DUP4 GT PUSH2 0x15D JUMPI PUSH1 0x20 DUP1 DUP6 ADD SWAP5 DUP5 PUSH1 0x5 SHL ADD ADD GT PUSH2 0x15D JUMPI JUMP JUMPDEST CALLVALUE PUSH2 0x15D JUMPI PUSH1 0x40 PUSH32 0xFFFFFFFFFFFFFFFFFFFFFFFFFFFFFFFFFFFFFFFFFFFFFFFFFFFFFFFFFFFFFFFC CALLDATASIZE ADD SLT PUSH2 0x15D JUMPI PUSH8 0xFFFFFFFFFFFFFFFF PUSH1 0x4 DUP1 CALLDATALOAD DUP3 DUP2 GT PUSH2 0x15D JUMPI PUSH2 0x41D SWAP1 CALLDATASIZE SWAP1 DUP4 ADD PUSH2 0x39C JUMP JUMPDEST PUSH1 0x24 SWAP3 SWAP2 SWAP3 SWAP4 DUP5 CALLDATALOAD SWAP1 DUP2 GT PUSH2 0x15D JUMPI PUSH2 0x439 SWAP1 CALLDATASIZE SWAP1 DUP5 ADD PUSH2 0x39C JUMP JUMPDEST PUSH2 0x441 PUSH2 0x1B97 JUMP JUMPDEST DUP1 DUP4 SUB PUSH2 0x4E1 JUMPI PUSH1 0x0 JUMPDEST DUP4 DUP2 LT PUSH2 0x454 JUMPI STOP JUMPDEST PUSH2 0x485 PUSH2 0x46A PUSH2 0x465 DUP4 DUP8 DUP11 PUSH2 0x19D5 JUMP JUMPDEST PUSH2 0x19EA JUMP JUMPDEST PUSH2 0x47F PUSH2 0x478 DUP5 DUP7 DUP9 PUSH2 0x1A45 JUMP JUMPDEST CALLDATASIZE SWAP2 PUSH2 0xAFB JUMP JUMPDEST SWAP1 PUSH2 0x1F6A JUMP JUMPDEST PUSH32 0xFFFFFFFFFFFFFFFFFFFFFFFFFFFFFFFFFFFFFFFFFFFFFFFFFFFFFFFFFFFFFFFF DUP2 EQ PUSH2 0x4B4 JUMPI PUSH1 0x1 ADD PUSH2 0x44B JUMP JUMPDEST DUP7 PUSH1 0x11 DUP7 PUSH32 0x4E487B7100000000000000000000000000000000000000000000000000000000 PUSH1 0x0 MSTORE MSTORE PUSH1 0x0 REVERT JUMPDEST PUSH1 0x64 DUP5 PUSH1 0x13 DUP9 PUSH1 0x20 PUSH1 0x40 MLOAD SWAP4 PUSH32 0x8C379A000000000000000000000000000000000000000000000000000000000 DUP6 MSTORE DUP5 ADD MSTORE DUP3 ADD MSTORE PUSH32 0x77726F6E67206172726179206C656E6774687300000000000000000000000000 PUSH1 0x44 DUP3 ADD MSTORE REVERT JUMPDEST CALLVALUE PUSH2 0x15D JUMPI PUSH1 0x20 PUSH32 0xFFFFFFFFFFFFFFFFFFFFFFFFFFFFFFFFFFFFFFFFFFFFFFFFFFFFFFFFFFFFFFFC CALLDATASIZE ADD SLT PUSH2 0x15D JUMPI PUSH1 0x4 CALLDATALOAD PUSH2 0x579 DUP2 PUSH2 0x13F JUMP JUMPDEST PUSH20 0xFFFFFFFFFFFFFFFFFFFFFFFFFFFFFFFFFFFFFFFF SWAP1 DUP2 PUSH32 0x0 AND SWAP2 PUSH2 0x5BF DUP4 ADDRESS EQ ISZERO PUSH2 0x1426 JUMP JUMPDEST PUSH2 0x5EE PUSH32 0x360894A13BA1A3210667C828492DB98DCA3E2076CC3735A920A3CA505D382BBC SWAP4 DUP3 DUP6 SLOAD AND EQ PUSH2 0x14B1 JUMP JUMPDEST PUSH2 0x5F6 PUSH2 0x1F8A JUMP JUMPDEST PUSH1 0x40 MLOAD SWAP1 PUSH2 0x603 DUP3 PUSH2 0xA48 JUMP JUMPDEST PUSH1 0x0 DUP3 MSTORE PUSH32 0x4910FDFA16FED3260ED0E7147F7CC6DA11A60208B5B9406D12A635614FFD9143 SLOAD PUSH1 0xFF AND ISZERO PUSH2 0x63D JUMPI POP POP PUSH2 0x19 SWAP2 POP PUSH2 0x15E2 JUMP JUMPDEST PUSH1 0x20 PUSH1 0x4 SWAP2 PUSH1 0x40 SWAP5 SWAP4 SWAP5 MLOAD SWAP3 DUP4 DUP1 SWAP3 PUSH32 0x52D1902D00000000000000000000000000000000000000000000000000000000 DUP3 MSTORE DUP7 AND GAS STATICCALL PUSH1 0x0 SWAP2 DUP2 PUSH2 0x719 JUMPI JUMPDEST POP PUSH2 0x706 JUMPI PUSH1 0x40 MLOAD PUSH32 0x8C379A000000000000000000000000000000000000000000000000000000000 DUP2 MSTORE PUSH1 0x20 PUSH1 0x4 DUP3 ADD MSTORE PUSH1 0x2E PUSH1 0x24 DUP3 ADD MSTORE PUSH32 0x45524331393637557067726164653A206E657720696D706C656D656E74617469 PUSH1 0x44 DUP3 ADD MSTORE PUSH32 0x6F6E206973206E6F742055555053000000000000000000000000000000000000 PUSH1 0x64 DUP3 ADD MSTORE PUSH1 0x84 SWAP1 REVERT JUMPDEST PUSH2 0x19 SWAP4 PUSH2 0x714 SWAP2 EQ PUSH2 0x1557 JUMP JUMPDEST PUSH2 0x16CE JUMP JUMPDEST PUSH2 0x73B SWAP2 SWAP3 POP PUSH1 0x20 RETURNDATASIZE DUP2 GT PUSH2 0x742 JUMPI JUMPDEST PUSH2 0x733 DUP2 DUP4 PUSH2 0xA80 JUMP JUMPDEST DUP2 ADD SWAP1 PUSH2 0x153C JUMP JUMPDEST SWAP1 CODESIZE PUSH2 0x67C JUMP JUMPDEST POP RETURNDATASIZE PUSH2 0x729 JUMP JUMPDEST CALLVALUE PUSH2 0x15D JUMPI PUSH32 0xFFFFFFFFFFFFFFFFFFFFFFFFFFFFFFFFFFFFFFFFFFFFFFFFFFFFFFFFFFFFFFFC PUSH1 0x60 DUP2 CALLDATASIZE ADD SLT PUSH2 0x15D JUMPI PUSH1 0x4 CALLDATALOAD SWAP1 PUSH8 0xFFFFFFFFFFFFFFFF DUP3 GT PUSH2 0x15D JUMPI PUSH2 0x160 SWAP1 DUP3 CALLDATASIZE SUB ADD SLT PUSH2 0x15D JUMPI PUSH20 0xFFFFFFFFFFFFFFFFFFFFFFFFFFFFFFFFFFFFFFFF PUSH32 0x0 AND CALLER SUB PUSH2 0x808 JUMPI PUSH2 0x7E9 PUSH2 0x804 SWAP2 PUSH1 0x24 CALLDATALOAD SWAP1 PUSH1 0x4 ADD PUSH2 0x1C50 JUMP JUMPDEST PUSH2 0x7F4 PUSH1 0x44 CALLDATALOAD PUSH2 0x196C JUMP JUMPDEST PUSH1 0x40 MLOAD SWAP1 DUP2 MSTORE SWAP1 DUP2 SWAP1 PUSH1 0x20 DUP3 ADD SWAP1 JUMP JUMPDEST SUB SWAP1 RETURN JUMPDEST PUSH1 0x64 PUSH1 0x40 MLOAD PUSH32 0x8C379A000000000000000000000000000000000000000000000000000000000 DUP2 MSTORE PUSH1 0x20 PUSH1 0x4 DUP3 ADD MSTORE PUSH1 0x1C PUSH1 0x24 DUP3 ADD MSTORE PUSH32 0x6163636F756E743A206E6F742066726F6D20456E747279506F696E7400000000 PUSH1 0x44 DUP3 ADD MSTORE REVERT JUMPDEST PUSH1 0x0 DUP1 PUSH32 0xFFFFFFFFFFFFFFFFFFFFFFFFFFFFFFFFFFFFFFFFFFFFFFFFFFFFFFFFFFFFFFFC CALLDATASIZE ADD SLT PUSH2 0x926 JUMPI PUSH20 0xFFFFFFFFFFFFFFFFFFFFFFFFFFFFFFFFFFFFFFFF PUSH32 0x0 AND DUP2 DUP2 EXTCODESIZE ISZERO PUSH2 0x926 JUMPI PUSH1 0x24 SWAP2 PUSH1 0x40 MLOAD SWAP3 DUP4 DUP1 SWAP3 PUSH32 0xB760FAF900000000000000000000000000000000000000000000000000000000 DUP3 MSTORE ADDRESS PUSH1 0x4 DUP4 ADD MSTORE CALLVALUE SWAP1 GAS CALL DUP1 ISZERO PUSH2 0x921 JUMPI PUSH2 0x915 JUMPI POP DUP1 RETURN JUMPDEST PUSH2 0x91E SWAP1 PUSH2 0xA2F JUMP JUMPDEST DUP1 RETURN JUMPDEST PUSH2 0x154B JUMP JUMPDEST DUP1 REVERT JUMPDEST CALLVALUE PUSH2 0x15D JUMPI PUSH1 0x0 PUSH1 0x40 PUSH32 0xFFFFFFFFFFFFFFFFFFFFFFFFFFFFFFFFFFFFFFFFFFFFFFFFFFFFFFFFFFFFFFFC CALLDATASIZE ADD SLT PUSH2 0x926 JUMPI PUSH1 0x4 CALLDATALOAD PUSH2 0x966 DUP2 PUSH2 0x13F JUMP JUMPDEST PUSH2 0x96E PUSH2 0x1F8A JUMP JUMPDEST DUP2 PUSH20 0xFFFFFFFFFFFFFFFFFFFFFFFFFFFFFFFFFFFFFFFF DUP1 PUSH32 0x0 AND SWAP3 DUP4 EXTCODESIZE ISZERO PUSH2 0x9FC JUMPI PUSH1 0x44 SWAP1 DUP4 PUSH1 0x40 MLOAD SWAP6 DUP7 SWAP5 DUP6 SWAP4 PUSH32 0x205C287800000000000000000000000000000000000000000000000000000000 DUP6 MSTORE AND PUSH1 0x4 DUP5 ADD MSTORE PUSH1 0x24 CALLDATALOAD PUSH1 0x24 DUP5 ADD MSTORE GAS CALL DUP1 ISZERO PUSH2 0x921 JUMPI PUSH2 0x915 JUMPI POP DUP1 RETURN JUMPDEST DUP3 DUP1 REVERT JUMPDEST PUSH32 0x4E487B7100000000000000000000000000000000000000000000000000000000 PUSH1 0x0 MSTORE PUSH1 0x41 PUSH1 0x4 MSTORE PUSH1 0x24 PUSH1 0x0 REVERT JUMPDEST PUSH8 0xFFFFFFFFFFFFFFFF DUP2 GT PUSH2 0xA43 JUMPI PUSH1 0x40 MSTORE JUMP JUMPDEST PUSH2 0xA00 JUMP JUMPDEST PUSH1 0x20 DUP2 ADD SWAP1 DUP2 LT PUSH8 0xFFFFFFFFFFFFFFFF DUP3 GT OR PUSH2 0xA43 JUMPI PUSH1 0x40 MSTORE JUMP JUMPDEST PUSH1 0x60 DUP2 ADD SWAP1 DUP2 LT PUSH8 0xFFFFFFFFFFFFFFFF DUP3 GT OR PUSH2 0xA43 JUMPI PUSH1 0x40 MSTORE JUMP JUMPDEST SWAP1 PUSH1 0x1F PUSH32 0xFFFFFFFFFFFFFFFFFFFFFFFFFFFFFFFFFFFFFFFFFFFFFFFFFFFFFFFFFFFFFFE0 SWAP2 ADD AND DUP2 ADD SWAP1 DUP2 LT PUSH8 0xFFFFFFFFFFFFFFFF DUP3 GT OR PUSH2 0xA43 JUMPI PUSH1 0x40 MSTORE JUMP JUMPDEST PUSH8 0xFFFFFFFFFFFFFFFF DUP2 GT PUSH2 0xA43 JUMPI PUSH1 0x1F ADD PUSH32 0xFFFFFFFFFFFFFFFFFFFFFFFFFFFFFFFFFFFFFFFFFFFFFFFFFFFFFFFFFFFFFFE0 AND PUSH1 0x20 ADD SWAP1 JUMP JUMPDEST SWAP3 SWAP2 SWAP3 PUSH2 0xB07 DUP3 PUSH2 0xAC1 JUMP JUMPDEST SWAP2 PUSH2 0xB15 PUSH1 0x40 MLOAD SWAP4 DUP5 PUSH2 0xA80 JUMP JUMPDEST DUP3 SWAP5 DUP2 DUP5 MSTORE DUP2 DUP4 ADD GT PUSH2 0x15D JUMPI DUP3 DUP2 PUSH1 0x20 SWAP4 DUP5 PUSH1 0x0 SWAP7 ADD CALLDATACOPY ADD ADD MSTORE JUMP JUMPDEST PUSH1 0x40 PUSH32 0xFFFFFFFFFFFFFFFFFFFFFFFFFFFFFFFFFFFFFFFFFFFFFFFFFFFFFFFFFFFFFFFC CALLDATASIZE ADD SLT PUSH2 0x15D JUMPI PUSH1 0x4 CALLDATALOAD PUSH2 0xB68 DUP2 PUSH2 0x13F JUMP JUMPDEST PUSH1 0x24 CALLDATALOAD PUSH8 0xFFFFFFFFFFFFFFFF DUP2 GT PUSH2 0x15D JUMPI CALLDATASIZE PUSH1 0x23 DUP3 ADD SLT ISZERO PUSH2 0x15D JUMPI PUSH2 0xB99 SWAP1 CALLDATASIZE SWAP1 PUSH1 0x24 DUP2 PUSH1 0x4 ADD CALLDATALOAD SWAP2 ADD PUSH2 0xAFB JUMP JUMPDEST SWAP1 PUSH20 0xFFFFFFFFFFFFFFFFFFFFFFFFFFFFFFFFFFFFFFFF SWAP2 DUP3 PUSH32 0x0 AND SWAP3 PUSH2 0xBE0 DUP5 ADDRESS EQ ISZERO PUSH2 0x1426 JUMP JUMPDEST PUSH2 0xC0F PUSH32 0x360894A13BA1A3210667C828492DB98DCA3E2076CC3735A920A3CA505D382BBC SWAP5 DUP3 DUP7 SLOAD AND EQ PUSH2 0x14B1 JUMP JUMPDEST PUSH2 0xC17 PUSH2 0x1F8A JUMP JUMPDEST PUSH32 0x4910FDFA16FED3260ED0E7147F7CC6DA11A60208B5B9406D12A635614FFD9143 SLOAD PUSH1 0xFF AND ISZERO PUSH2 0xC4D JUMPI POP POP PUSH2 0x19 SWAP2 POP PUSH2 0x15E2 JUMP JUMPDEST PUSH1 0x20 PUSH1 0x4 SWAP2 PUSH1 0x40 SWAP5 SWAP4 SWAP5 MLOAD SWAP3 DUP4 DUP1 SWAP3 PUSH32 0x52D1902D00000000000000000000000000000000000000000000000000000000 DUP3 MSTORE DUP7 AND GAS STATICCALL PUSH1 0x0 SWAP2 DUP2 PUSH2 0xD29 JUMPI JUMPDEST POP PUSH2 0xD16 JUMPI PUSH1 0x40 MLOAD PUSH32 0x8C379A000000000000000000000000000000000000000000000000000000000 DUP2 MSTORE PUSH1 0x20 PUSH1 0x4 DUP3 ADD MSTORE PUSH1 0x2E PUSH1 0x24 DUP3 ADD MSTORE PUSH32 0x45524331393637557067726164653A206E657720696D706C656D656E74617469 PUSH1 0x44 DUP3 ADD MSTORE PUSH32 0x6F6E206973206E6F742055555053000000000000000000000000000000000000 PUSH1 0x64 DUP3 ADD MSTORE PUSH1 0x84 SWAP1 REVERT JUMPDEST PUSH2 0x19 SWAP4 PUSH2 0xD24 SWAP2 EQ PUSH2 0x1557 JUMP JUMPDEST PUSH2 0x17AD JUMP JUMPDEST PUSH2 0xD42 SWAP2 SWAP3 POP PUSH1 0x20 RETURNDATASIZE DUP2 GT PUSH2 0x742 JUMPI PUSH2 0x733 DUP2 DUP4 PUSH2 0xA80 JUMP JUMPDEST SWAP1 CODESIZE PUSH2 0xC8C JUMP JUMPDEST CALLVALUE PUSH2 0x15D JUMPI PUSH1 0x0 PUSH32 0xFFFFFFFFFFFFFFFFFFFFFFFFFFFFFFFFFFFFFFFFFFFFFFFFFFFFFFFFFFFFFFFC CALLDATASIZE ADD SLT PUSH2 0x15D JUMPI PUSH20 0xFFFFFFFFFFFFFFFFFFFFFFFFFFFFFFFFFFFFFFFF PUSH32 0x0 AND ADDRESS SUB PUSH2 0xDE0 JUMPI PUSH1 0x40 MLOAD PUSH32 0x360894A13BA1A3210667C828492DB98DCA3E2076CC3735A920A3CA505D382BBC DUP2 MSTORE PUSH1 0x20 SWAP1 RETURN JUMPDEST PUSH1 0x84 PUSH1 0x40 MLOAD PUSH32 0x8C379A000000000000000000000000000000000000000000000000000000000 DUP2 MSTORE PUSH1 0x20 PUSH1 0x4 DUP3 ADD MSTORE PUSH1 0x38 PUSH1 0x24 DUP3 ADD MSTORE PUSH32 0x555550535570677261646561626C653A206D757374206E6F742062652063616C PUSH1 0x44 DUP3 ADD MSTORE PUSH32 0x6C6564207468726F7567682064656C656761746563616C6C0000000000000000 PUSH1 0x64 DUP3 ADD MSTORE REVERT JUMPDEST CALLVALUE PUSH2 0x15D JUMPI PUSH1 0x0 PUSH32 0xFFFFFFFFFFFFFFFFFFFFFFFFFFFFFFFFFFFFFFFFFFFFFFFFFFFFFFFFFFFFFFFC CALLDATASIZE ADD SLT PUSH2 0x15D JUMPI PUSH1 0x20 PUSH20 0xFFFFFFFFFFFFFFFFFFFFFFFFFFFFFFFFFFFFFFFF PUSH1 0x0 SLOAD PUSH1 0x10 SHR AND PUSH1 0x40 MLOAD SWAP1 DUP2 MSTORE RETURN JUMPDEST CALLVALUE PUSH2 0x15D JUMPI PUSH1 0x0 PUSH32 0xFFFFFFFFFFFFFFFFFFFFFFFFFFFFFFFFFFFFFFFFFFFFFFFFFFFFFFFFFFFFFFFC CALLDATASIZE ADD SLT PUSH2 0x15D JUMPI PUSH1 0x20 PUSH1 0x40 MLOAD PUSH20 0xFFFFFFFFFFFFFFFFFFFFFFFFFFFFFFFFFFFFFFFF PUSH32 0x0 AND DUP2 MSTORE RETURN JUMPDEST CALLVALUE PUSH2 0x15D JUMPI PUSH1 0x60 PUSH32 0xFFFFFFFFFFFFFFFFFFFFFFFFFFFFFFFFFFFFFFFFFFFFFFFFFFFFFFFFFFFFFFFC CALLDATASIZE ADD SLT PUSH2 0x15D JUMPI PUSH1 0x4 CALLDATALOAD PUSH2 0xF63 DUP2 PUSH2 0x13F JUMP JUMPDEST PUSH1 0x44 CALLDATALOAD PUSH8 0xFFFFFFFFFFFFFFFF DUP2 GT PUSH2 0x15D JUMPI PUSH1 0x0 SWAP2 PUSH2 0xF92 PUSH2 0xF8A DUP5 SWAP4 CALLDATASIZE SWAP1 PUSH1 0x4 ADD PUSH2 0x162 JUMP JUMPDEST PUSH2 0x478 PUSH2 0x1B97 JUMP JUMPDEST SWAP1 PUSH1 0x20 DUP3 MLOAD SWAP3 ADD SWAP1 PUSH1 0x24 CALLDATALOAD SWAP1 GAS CALL PUSH2 0xFA8 PUSH2 0x180D JUMP JUMPDEST SWAP1 ISZERO PUSH2 0xFB0 JUMPI STOP JUMPDEST PUSH1 0x20 DUP2 MLOAD SWAP2 ADD REVERT JUMPDEST CALLVALUE PUSH2 0x15D JUMPI PUSH1 0xA0 PUSH32 0xFFFFFFFFFFFFFFFFFFFFFFFFFFFFFFFFFFFFFFFFFFFFFFFFFFFFFFFFFFFFFFFC CALLDATASIZE ADD SLT PUSH2 0x15D JUMPI PUSH2 0xFF2 PUSH1 0x4 CALLDATALOAD PUSH2 0x13F JUMP JUMPDEST PUSH2 0xFFD PUSH1 0x24 CALLDATALOAD PUSH2 0x13F JUMP JUMPDEST PUSH8 0xFFFFFFFFFFFFFFFF PUSH1 0x44 CALLDATALOAD DUP2 DUP2 GT PUSH2 0x15D JUMPI PUSH2 0x101E SWAP1 CALLDATASIZE SWAP1 PUSH1 0x4 ADD PUSH2 0x39C JUMP JUMPDEST POP POP PUSH1 0x64 CALLDATALOAD DUP2 DUP2 GT PUSH2 0x15D JUMPI PUSH2 0x1038 SWAP1 CALLDATASIZE SWAP1 PUSH1 0x4 ADD PUSH2 0x39C JUMP JUMPDEST POP POP PUSH1 0x84 CALLDATALOAD SWAP1 DUP2 GT PUSH2 0x15D JUMPI PUSH2 0x1052 SWAP1 CALLDATASIZE SWAP1 PUSH1 0x4 ADD PUSH2 0x162 JUMP JUMPDEST POP POP PUSH1 0x40 MLOAD PUSH32 0xBC197C8100000000000000000000000000000000000000000000000000000000 DUP2 MSTORE PUSH1 0x20 SWAP1 RETURN JUMPDEST CALLVALUE PUSH2 0x15D JUMPI PUSH1 0x0 PUSH32 0xFFFFFFFFFFFFFFFFFFFFFFFFFFFFFFFFFFFFFFFFFFFFFFFFFFFFFFFFFFFFFFFC CALLDATASIZE ADD SLT PUSH2 0x15D JUMPI PUSH1 0x40 MLOAD PUSH32 0x70A0823100000000000000000000000000000000000000000000000000000000 DUP2 MSTORE ADDRESS PUSH1 0x4 DUP3 ADD MSTORE PUSH1 0x20 DUP2 PUSH1 0x24 DUP2 PUSH20 0xFFFFFFFFFFFFFFFFFFFFFFFFFFFFFFFFFFFFFFFF PUSH32 0x0 AND GAS STATICCALL DUP1 ISZERO PUSH2 0x921 JUMPI PUSH1 0x20 SWAP2 PUSH1 0x0 SWAP2 PUSH2 0x1133 JUMPI JUMPDEST POP PUSH1 0x40 MLOAD SWAP1 DUP2 MSTORE RETURN JUMPDEST PUSH2 0x114A SWAP2 POP DUP3 RETURNDATASIZE DUP2 GT PUSH2 0x742 JUMPI PUSH2 0x733 DUP2 DUP4 PUSH2 0xA80 JUMP JUMPDEST CODESIZE PUSH2 0x112A JUMP JUMPDEST CALLVALUE PUSH2 0x15D JUMPI PUSH1 0x20 PUSH32 0xFFFFFFFFFFFFFFFFFFFFFFFFFFFFFFFFFFFFFFFFFFFFFFFFFFFFFFFFFFFFFFFC CALLDATASIZE ADD SLT PUSH2 0x15D JUMPI PUSH1 0x4 CALLDATALOAD PUSH2 0x118B DUP2 PUSH2 0x13F JUMP JUMPDEST PUSH2 0x11ED PUSH1 0x0 SLOAD SWAP2 PUSH2 0x11B3 PUSH1 0xFF DUP5 PUSH1 0x8 SHR AND ISZERO DUP1 SWAP5 DUP2 SWAP6 PUSH2 0x12A5 JUMPI JUMPDEST DUP2 ISZERO PUSH2 0x1285 JUMPI JUMPDEST POP PUSH2 0x1A60 JUMP JUMPDEST DUP3 PUSH2 0x11E4 PUSH1 0x1 PUSH32 0xFFFFFFFFFFFFFFFFFFFFFFFFFFFFFFFFFFFFFFFFFFFFFFFFFFFFFFFFFFFFFF00 PUSH1 0x0 SLOAD AND OR PUSH1 0x0 SSTORE JUMP JUMPDEST PUSH2 0x124F JUMPI PUSH2 0x1AEB JUMP JUMPDEST PUSH2 0x11F3 JUMPI STOP JUMPDEST PUSH2 0x1220 PUSH32 0xFFFFFFFFFFFFFFFFFFFFFFFFFFFFFFFFFFFFFFFFFFFFFFFFFFFFFFFFFFFF00FF PUSH1 0x0 SLOAD AND PUSH1 0x0 SSTORE JUMP JUMPDEST PUSH1 0x40 MLOAD PUSH1 0x1 DUP2 MSTORE PUSH32 0x7F26B83FF96E1F2B6A682F133852F6798A09C465DA95921460CEFB3847402498 SWAP1 PUSH1 0x20 SWAP1 LOG1 STOP JUMPDEST PUSH2 0x1280 PUSH2 0x100 PUSH32 0xFFFFFFFFFFFFFFFFFFFFFFFFFFFFFFFFFFFFFFFFFFFFFFFFFFFFFFFFFFFF00FF PUSH1 0x0 SLOAD AND OR PUSH1 0x0 SSTORE JUMP JUMPDEST PUSH2 0x1AEB JUMP JUMPDEST ADDRESS EXTCODESIZE ISZERO SWAP2 POP DUP2 PUSH2 0x1297 JUMPI JUMPDEST POP CODESIZE PUSH2 0x11AD JUMP JUMPDEST PUSH1 0x1 SWAP2 POP PUSH1 0xFF AND EQ CODESIZE PUSH2 0x1290 JUMP JUMPDEST PUSH1 0x1 PUSH1 0xFF DUP3 AND LT SWAP2 POP PUSH2 0x11A6 JUMP JUMPDEST CALLVALUE PUSH2 0x15D JUMPI PUSH1 0x0 PUSH32 0xFFFFFFFFFFFFFFFFFFFFFFFFFFFFFFFFFFFFFFFFFFFFFFFFFFFFFFFFFFFFFFFC CALLDATASIZE ADD SLT PUSH2 0x15D JUMPI PUSH1 0x40 MLOAD PUSH32 0x35567E1A00000000000000000000000000000000000000000000000000000000 DUP2 MSTORE ADDRESS PUSH1 0x4 DUP3 ADD MSTORE PUSH1 0x0 PUSH1 0x24 DUP3 ADD MSTORE PUSH1 0x20 DUP2 PUSH1 0x44 DUP2 PUSH20 0xFFFFFFFFFFFFFFFFFFFFFFFFFFFFFFFFFFFFFFFF PUSH32 0x0 AND GAS STATICCALL DUP1 ISZERO PUSH2 0x921 JUMPI PUSH2 0x804 SWAP2 PUSH1 0x0 SWAP2 PUSH2 0x1377 JUMPI JUMPDEST POP PUSH1 0x40 MLOAD SWAP1 DUP2 MSTORE SWAP1 DUP2 SWAP1 PUSH1 0x20 DUP3 ADD SWAP1 JUMP JUMPDEST PUSH2 0x138F SWAP2 POP PUSH1 0x20 RETURNDATASIZE DUP2 GT PUSH2 0x742 JUMPI PUSH2 0x733 DUP2 DUP4 PUSH2 0xA80 JUMP JUMPDEST CODESIZE PUSH2 0x1366 JUMP JUMPDEST CALLVALUE PUSH2 0x15D JUMPI PUSH1 0xA0 PUSH32 0xFFFFFFFFFFFFFFFFFFFFFFFFFFFFFFFFFFFFFFFFFFFFFFFFFFFFFFFFFFFFFFFC CALLDATASIZE ADD SLT PUSH2 0x15D JUMPI PUSH2 0x13CF PUSH1 0x4 CALLDATALOAD PUSH2 0x13F JUMP JUMPDEST PUSH2 0x13DA PUSH1 0x24 CALLDATALOAD PUSH2 0x13F JUMP JUMPDEST PUSH1 0x84 CALLDATALOAD PUSH8 0xFFFFFFFFFFFFFFFF DUP2 GT PUSH2 0x15D JUMPI PUSH2 0x13FA SWAP1 CALLDATASIZE SWAP1 PUSH1 0x4 ADD PUSH2 0x162 JUMP JUMPDEST POP POP PUSH1 0x20 PUSH1 0x40 MLOAD PUSH32 0xF23A6E6100000000000000000000000000000000000000000000000000000000 DUP2 MSTORE RETURN JUMPDEST ISZERO PUSH2 0x142D JUMPI JUMP JUMPDEST PUSH1 0x84 PUSH1 0x40 MLOAD PUSH32 0x8C379A000000000000000000000000000000000000000000000000000000000 DUP2 MSTORE PUSH1 0x20 PUSH1 0x4 DUP3 ADD MSTORE PUSH1 0x2C PUSH1 0x24 DUP3 ADD MSTORE PUSH32 0x46756E6374696F6E206D7573742062652063616C6C6564207468726F75676820 PUSH1 0x44 DUP3 ADD MSTORE PUSH32 0x64656C656761746563616C6C0000000000000000000000000000000000000000 PUSH1 0x64 DUP3 ADD MSTORE REVERT JUMPDEST ISZERO PUSH2 0x14B8 JUMPI JUMP JUMPDEST PUSH1 0x84 PUSH1 0x40 MLOAD PUSH32 0x8C379A000000000000000000000000000000000000000000000000000000000 DUP2 MSTORE PUSH1 0x20 PUSH1 0x4 DUP3 ADD MSTORE PUSH1 0x2C PUSH1 0x24 DUP3 ADD MSTORE PUSH32 0x46756E6374696F6E206D7573742062652063616C6C6564207468726F75676820 PUSH1 0x44 DUP3 ADD MSTORE PUSH32 0x6163746976652070726F78790000000000000000000000000000000000000000 PUSH1 0x64 DUP3 ADD MSTORE REVERT JUMPDEST SWAP1 DUP2 PUSH1 0x20 SWAP2 SUB SLT PUSH2 0x15D JUMPI MLOAD SWAP1 JUMP JUMPDEST PUSH1 0x40 MLOAD RETURNDATASIZE PUSH1 0x0 DUP3 RETURNDATACOPY RETURNDATASIZE SWAP1 REVERT JUMPDEST ISZERO PUSH2 0x155E JUMPI JUMP JUMPDEST PUSH1 0x84 PUSH1 0x40 MLOAD PUSH32 0x8C379A000000000000000000000000000000000000000000000000000000000 DUP2 MSTORE PUSH1 0x20 PUSH1 0x4 DUP3 ADD MSTORE PUSH1 0x29 PUSH1 0x24 DUP3 ADD MSTORE PUSH32 0x45524331393637557067726164653A20756E737570706F727465642070726F78 PUSH1 0x44 DUP3 ADD MSTORE PUSH32 0x6961626C65555549440000000000000000000000000000000000000000000000 PUSH1 0x64 DUP3 ADD MSTORE REVERT JUMPDEST DUP1 EXTCODESIZE ISZERO PUSH2 0x164A JUMPI PUSH20 0xFFFFFFFFFFFFFFFFFFFFFFFFFFFFFFFFFFFFFFFF PUSH32 0x360894A13BA1A3210667C828492DB98DCA3E2076CC3735A920A3CA505D382BBC SWAP2 AND PUSH32 0xFFFFFFFFFFFFFFFFFFFFFFFF0000000000000000000000000000000000000000 DUP3 SLOAD AND OR SWAP1 SSTORE JUMP JUMPDEST PUSH1 0x84 PUSH1 0x40 MLOAD PUSH32 0x8C379A000000000000000000000000000000000000000000000000000000000 DUP2 MSTORE PUSH1 0x20 PUSH1 0x4 DUP3 ADD MSTORE PUSH1 0x2D PUSH1 0x24 DUP3 ADD MSTORE PUSH32 0x455243313936373A206E657720696D706C656D656E746174696F6E206973206E PUSH1 0x44 DUP3 ADD MSTORE PUSH32 0x6F74206120636F6E747261637400000000000000000000000000000000000000 PUSH1 0x64 DUP3 ADD MSTORE REVERT JUMPDEST SWAP1 PUSH2 0x16D8 DUP3 PUSH2 0x15E2 JUMP JUMPDEST PUSH20 0xFFFFFFFFFFFFFFFFFFFFFFFFFFFFFFFFFFFFFFFF DUP3 AND PUSH32 0xBC7CD75A20EE27FD9ADEBAB32041F755214DBC6BFFA90CC0225B39DA2E5C2D3B PUSH1 0x0 DUP1 LOG2 DUP1 MLOAD ISZERO DUP1 ISZERO SWAP1 PUSH2 0x17A5 JUMPI JUMPDEST PUSH2 0x1727 JUMPI POP POP JUMP JUMPDEST PUSH2 0x17A2 SWAP2 PUSH1 0x0 DUP1 PUSH1 0x40 MLOAD SWAP4 PUSH2 0x173B DUP6 PUSH2 0xA64 JUMP JUMPDEST PUSH1 0x27 DUP6 MSTORE PUSH32 0x416464726573733A206C6F772D6C6576656C2064656C65676174652063616C6C PUSH1 0x20 DUP7 ADD MSTORE PUSH32 0x206661696C656400000000000000000000000000000000000000000000000000 PUSH1 0x40 DUP7 ADD MSTORE PUSH1 0x20 DUP2 MLOAD SWAP2 ADD DUP5 GAS DELEGATECALL PUSH2 0x179C PUSH2 0x180D JUMP JUMPDEST SWAP2 PUSH2 0x18A2 JUMP JUMPDEST POP JUMP JUMPDEST POP PUSH1 0x0 PUSH2 0x171F JUMP JUMPDEST SWAP1 PUSH2 0x17B7 DUP3 PUSH2 0x15E2 JUMP JUMPDEST PUSH20 0xFFFFFFFFFFFFFFFFFFFFFFFFFFFFFFFFFFFFFFFF DUP3 AND PUSH32 0xBC7CD75A20EE27FD9ADEBAB32041F755214DBC6BFFA90CC0225B39DA2E5C2D3B PUSH1 0x0 DUP1 LOG2 DUP1 MLOAD ISZERO DUP1 ISZERO SWAP1 PUSH2 0x1805 JUMPI PUSH2 0x1727 JUMPI POP POP JUMP JUMPDEST POP PUSH1 0x1 PUSH2 0x171F JUMP JUMPDEST RETURNDATASIZE ISZERO PUSH2 0x1838 JUMPI RETURNDATASIZE SWAP1 PUSH2 0x181E DUP3 PUSH2 0xAC1 JUMP JUMPDEST SWAP2 PUSH2 0x182C PUSH1 0x40 MLOAD SWAP4 DUP5 PUSH2 0xA80 JUMP JUMPDEST DUP3 MSTORE RETURNDATASIZE PUSH1 0x0 PUSH1 0x20 DUP5 ADD RETURNDATACOPY JUMP JUMPDEST PUSH1 0x60 SWAP1 JUMP JUMPDEST ISZERO PUSH2 0x1844 JUMPI JUMP JUMPDEST PUSH1 0x64 PUSH1 0x40 MLOAD PUSH32 0x8C379A000000000000000000000000000000000000000000000000000000000 DUP2 MSTORE PUSH1 0x20 PUSH1 0x4 DUP3 ADD MSTORE PUSH1 0x1D PUSH1 0x24 DUP3 ADD MSTORE PUSH32 0x416464726573733A2063616C6C20746F206E6F6E2D636F6E7472616374000000 PUSH1 0x44 DUP3 ADD MSTORE REVERT JUMPDEST SWAP2 SWAP3 SWAP1 ISZERO PUSH2 0x18C5 JUMPI POP DUP2 MLOAD ISZERO PUSH2 0x18B6 JUMPI POP SWAP1 JUMP JUMPDEST PUSH2 0x18C2 SWAP1 EXTCODESIZE ISZERO ISZERO PUSH2 0x183D JUMP JUMPDEST SWAP1 JUMP JUMPDEST DUP3 MLOAD SWAP1 SWAP2 POP ISZERO PUSH2 0x18D8 JUMPI POP DUP1 MLOAD SWAP1 PUSH1 0x20 ADD REVERT JUMPDEST PUSH1 0x40 MLOAD SWAP1 PUSH32 0x8C379A000000000000000000000000000000000000000000000000000000000 DUP3 MSTORE DUP2 PUSH1 0x20 DUP1 PUSH1 0x4 DUP4 ADD MSTORE DUP3 MLOAD SWAP3 DUP4 PUSH1 0x24 DUP5 ADD MSTORE PUSH1 0x0 JUMPDEST DUP5 DUP2 LT PUSH2 0x1955 JUMPI POP POP POP PUSH32 0xFFFFFFFFFFFFFFFFFFFFFFFFFFFFFFFFFFFFFFFFFFFFFFFFFFFFFFFFFFFFFFE0 PUSH1 0x1F DUP4 PUSH1 0x0 PUSH1 0x44 DUP1 SWAP7 DUP7 ADD ADD MSTORE ADD AND DUP2 ADD SUB ADD SWAP1 REVERT JUMPDEST DUP2 DUP2 ADD DUP4 ADD MLOAD DUP7 DUP3 ADD PUSH1 0x44 ADD MSTORE DUP6 SWAP4 POP DUP3 ADD PUSH2 0x1914 JUMP JUMPDEST DUP1 PUSH2 0x1974 JUMPI POP JUMP JUMPDEST PUSH1 0x0 DUP1 DUP1 DUP1 SWAP4 CALLER PUSH32 0xFFFFFFFFFFFFFFFFFFFFFFFFFFFFFFFFFFFFFFFFFFFFFFFFFFFFFFFFFFFFFFFF CALL POP PUSH2 0x17A2 PUSH2 0x180D JUMP JUMPDEST PUSH32 0x4E487B7100000000000000000000000000000000000000000000000000000000 PUSH1 0x0 MSTORE PUSH1 0x32 PUSH1 0x4 MSTORE PUSH1 0x24 PUSH1 0x0 REVERT JUMPDEST SWAP2 SWAP1 DUP2 LT ISZERO PUSH2 0x19E5 JUMPI PUSH1 0x5 SHL ADD SWAP1 JUMP JUMPDEST PUSH2 0x19A6 JUMP JUMPDEST CALLDATALOAD PUSH2 0x18C2 DUP2 PUSH2 0x13F JUMP JUMPDEST SWAP1 CALLDATALOAD SWAP1 PUSH32 0xFFFFFFFFFFFFFFFFFFFFFFFFFFFFFFFFFFFFFFFFFFFFFFFFFFFFFFFFFFFFFFE1 DUP2 CALLDATASIZE SUB ADD DUP3 SLT ISZERO PUSH2 0x15D JUMPI ADD DUP1 CALLDATALOAD SWAP1 PUSH8 0xFFFFFFFFFFFFFFFF DUP3 GT PUSH2 0x15D JUMPI PUSH1 0x20 ADD SWAP2 DUP2 CALLDATASIZE SUB DUP4 SGT PUSH2 0x15D JUMPI JUMP JUMPDEST SWAP1 DUP3 LT ISZERO PUSH2 0x19E5 JUMPI PUSH2 0x1A5C SWAP2 PUSH1 0x5 SHL DUP2 ADD SWAP1 PUSH2 0x19F4 JUMP JUMPDEST SWAP1 SWAP2 JUMP JUMPDEST ISZERO PUSH2 0x1A67 JUMPI JUMP JUMPDEST PUSH1 0x84 PUSH1 0x40 MLOAD PUSH32 0x8C379A000000000000000000000000000000000000000000000000000000000 DUP2 MSTORE PUSH1 0x20 PUSH1 0x4 DUP3 ADD MSTORE PUSH1 0x2E PUSH1 0x24 DUP3 ADD MSTORE PUSH32 0x496E697469616C697A61626C653A20636F6E747261637420697320616C726561 PUSH1 0x44 DUP3 ADD MSTORE PUSH32 0x647920696E697469616C697A6564000000000000000000000000000000000000 PUSH1 0x64 DUP3 ADD MSTORE REVERT JUMPDEST PUSH32 0xFFFFFFFFFFFFFFFFFFFF0000000000000000000000000000000000000000FFFF PUSH22 0xFFFFFFFFFFFFFFFFFFFFFFFFFFFFFFFFFFFFFFFF0000 PUSH1 0x0 SLOAD SWAP3 PUSH1 0x10 SHL AND SWAP2 AND OR DUP1 PUSH1 0x0 SSTORE PUSH20 0xFFFFFFFFFFFFFFFFFFFFFFFFFFFFFFFFFFFFFFFF DUP1 SWAP2 PUSH1 0x10 SHR AND SWAP1 PUSH32 0x0 AND PUSH32 0x47E55C76E7A6F1FD8996A1DA8008C1EA29699CCA35E7BCD057F2DEC313B6E5DE PUSH1 0x0 DUP1 LOG3 JUMP JUMPDEST PUSH20 0xFFFFFFFFFFFFFFFFFFFFFFFFFFFFFFFFFFFFFFFF DUP1 PUSH32 0x0 AND CALLER EQ SWAP1 DUP2 ISZERO PUSH2 0x1C3F JUMPI JUMPDEST POP ISZERO PUSH2 0x1BE1 JUMPI JUMP JUMPDEST PUSH1 0x64 PUSH1 0x40 MLOAD PUSH32 0x8C379A000000000000000000000000000000000000000000000000000000000 DUP2 MSTORE PUSH1 0x20 PUSH1 0x4 DUP3 ADD MSTORE PUSH1 0x20 PUSH1 0x24 DUP3 ADD MSTORE PUSH32 0x6163636F756E743A206E6F74204F776E6572206F7220456E747279506F696E74 PUSH1 0x44 DUP3 ADD MSTORE REVERT JUMPDEST SWAP1 POP PUSH1 0x0 SLOAD PUSH1 0x10 SHR AND CALLER EQ CODESIZE PUSH2 0x1BD9 JUMP JUMPDEST SWAP1 PUSH1 0x40 MLOAD PUSH1 0x20 DUP2 ADD SWAP2 PUSH32 0x19457468657265756D205369676E6564204D6573736167653A0A333200000000 DUP4 MSTORE PUSH1 0x3C DUP3 ADD MSTORE PUSH1 0x3C DUP2 MSTORE PUSH2 0x1C8E DUP2 PUSH2 0xA64 JUMP JUMPDEST MLOAD SWAP1 KECCAK256 PUSH2 0x1CD5 PUSH2 0x1CCD PUSH20 0xFFFFFFFFFFFFFFFFFFFFFFFFFFFFFFFFFFFFFFFF SWAP3 PUSH2 0x1CC7 PUSH2 0x478 DUP6 PUSH1 0x0 SLOAD PUSH1 0x10 SHR AND SWAP7 PUSH2 0x140 DUP2 ADD SWAP1 PUSH2 0x19F4 JUMP JUMPDEST SWAP1 PUSH2 0x1EA7 JUMP JUMPDEST SWAP2 SWAP1 SWAP2 PUSH2 0x1D1E JUMP JUMPDEST AND SUB PUSH2 0x1CE0 JUMPI PUSH1 0x0 SWAP1 JUMP JUMPDEST PUSH1 0x1 SWAP1 JUMP JUMPDEST PUSH1 0x5 GT ISZERO PUSH2 0x1CEF JUMPI JUMP JUMPDEST PUSH32 0x4E487B7100000000000000000000000000000000000000000000000000000000 PUSH1 0x0 MSTORE PUSH1 0x21 PUSH1 0x4 MSTORE PUSH1 0x24 PUSH1 0x0 REVERT JUMPDEST PUSH2 0x1D27 DUP2 PUSH2 0x1CE5 JUMP JUMPDEST DUP1 PUSH2 0x1D2F JUMPI POP JUMP JUMPDEST PUSH2 0x1D38 DUP2 PUSH2 0x1CE5 JUMP JUMPDEST PUSH1 0x1 DUP2 SUB PUSH2 0x1D9F JUMPI PUSH1 0x40 MLOAD PUSH32 0x8C379A000000000000000000000000000000000000000000000000000000000 DUP2 MSTORE PUSH1 0x20 PUSH1 0x4 DUP3 ADD MSTORE PUSH1 0x18 PUSH1 0x24 DUP3 ADD MSTORE PUSH32 0x45434453413A20696E76616C6964207369676E61747572650000000000000000 PUSH1 0x44 DUP3 ADD MSTORE PUSH1 0x64 SWAP1 REVERT JUMPDEST PUSH2 0x1DA8 DUP2 PUSH2 0x1CE5 JUMP JUMPDEST PUSH1 0x2 DUP2 SUB PUSH2 0x1E0F JUMPI PUSH1 0x40 MLOAD PUSH32 0x8C379A000000000000000000000000000000000000000000000000000000000 DUP2 MSTORE PUSH1 0x20 PUSH1 0x4 DUP3 ADD MSTORE PUSH1 0x1F PUSH1 0x24 DUP3 ADD MSTORE PUSH32 0x45434453413A20696E76616C6964207369676E6174757265206C656E67746800 PUSH1 0x44 DUP3 ADD MSTORE PUSH1 0x64 SWAP1 REVERT JUMPDEST DUP1 PUSH2 0x1E1B PUSH1 0x3 SWAP3 PUSH2 0x1CE5 JUMP JUMPDEST EQ PUSH2 0x1E22 JUMPI JUMP JUMPDEST PUSH1 0x40 MLOAD PUSH32 0x8C379A000000000000000000000000000000000000000000000000000000000 DUP2 MSTORE PUSH1 0x20 PUSH1 0x4 DUP3 ADD MSTORE PUSH1 0x22 PUSH1 0x24 DUP3 ADD MSTORE PUSH32 0x45434453413A20696E76616C6964207369676E6174757265202773272076616C PUSH1 0x44 DUP3 ADD MSTORE PUSH32 0x7565000000000000000000000000000000000000000000000000000000000000 PUSH1 0x64 DUP3 ADD MSTORE PUSH1 0x84 SWAP1 REVERT JUMPDEST SWAP1 PUSH1 0x41 DUP2 MLOAD EQ PUSH1 0x0 EQ PUSH2 0x1ED1 JUMPI PUSH2 0x1A5C SWAP2 PUSH1 0x20 DUP3 ADD MLOAD SWAP1 PUSH1 0x60 PUSH1 0x40 DUP5 ADD MLOAD SWAP4 ADD MLOAD PUSH1 0x0 BYTE SWAP1 PUSH2 0x1EDB JUMP JUMPDEST POP POP PUSH1 0x0 SWAP1 PUSH1 0x2 SWAP1 JUMP JUMPDEST SWAP3 SWAP2 SWAP1 PUSH32 0x7FFFFFFFFFFFFFFFFFFFFFFFFFFFFFFF5D576E7357A4501DDFE92F46681B20A0 DUP4 GT PUSH2 0x1F5E JUMPI SWAP2 PUSH1 0x80 SWAP5 SWAP4 SWAP2 PUSH1 0xFF PUSH1 0x20 SWAP5 PUSH1 0x40 MLOAD SWAP5 DUP6 MSTORE AND DUP5 DUP5 ADD MSTORE PUSH1 0x40 DUP4 ADD MSTORE PUSH1 0x60 DUP3 ADD MSTORE PUSH1 0x0 SWAP4 DUP5 SWAP2 DUP3 DUP1 MSTORE PUSH1 0x1 GAS STATICCALL ISZERO PUSH2 0x921 JUMPI DUP2 MLOAD PUSH20 0xFFFFFFFFFFFFFFFFFFFFFFFFFFFFFFFFFFFFFFFF DUP2 AND ISZERO PUSH2 0x1F58 JUMPI SWAP2 SWAP1 JUMP JUMPDEST POP PUSH1 0x1 SWAP1 JUMP JUMPDEST POP POP POP POP PUSH1 0x0 SWAP1 PUSH1 0x3 SWAP1 JUMP JUMPDEST PUSH1 0x0 SWAP2 DUP3 SWAP2 DUP3 PUSH1 0x20 DUP4 MLOAD SWAP4 ADD SWAP2 GAS CALL PUSH2 0x1F81 PUSH2 0x180D JUMP JUMPDEST SWAP1 ISZERO PUSH2 0xFB0 JUMPI POP JUMP JUMPDEST PUSH20 0xFFFFFFFFFFFFFFFFFFFFFFFFFFFFFFFFFFFFFFFF PUSH1 0x0 SLOAD PUSH1 0x10 SHR AND CALLER EQ DUP1 ISZERO PUSH2 0x2014 JUMPI JUMPDEST ISZERO PUSH2 0x1FB6 JUMPI JUMP JUMPDEST PUSH1 0x64 PUSH1 0x40 MLOAD PUSH32 0x8C379A000000000000000000000000000000000000000000000000000000000 DUP2 MSTORE PUSH1 0x20 PUSH1 0x4 DUP3 ADD MSTORE PUSH1 0xA PUSH1 0x24 DUP3 ADD MSTORE PUSH32 0x6F6E6C79206F776E657200000000000000000000000000000000000000000000 PUSH1 0x44 DUP3 ADD MSTORE REVERT JUMPDEST POP ADDRESS CALLER EQ PUSH2 0x1FAF JUMP INVALID LOG2 PUSH5 0x6970667358 0x22 SLT KECCAK256 PUSH13 0xA5E7A9A48E8442FBDF39BEDAC0 MLOAD 0x2E SWAP13 0xED 0x27 0x23 SWAP8 0xAE EXTCODECOPY 0xB3 0xB5 0xE3 0xD2 0xA6 SWAP13 RETURNDATACOPY TIMESTAMP 0xA6 PUSH5 0x736F6C6343 STOP ADDMOD SLT STOP CALLER "},"methodIdentifiers":{"addDeposit()":"4a58db19","entryPoint()":"b0d691fe","execute(address,uint256,bytes)":"b61d27f6","executeBatch(address[],bytes[])":"18dfb3c7","getDeposit()":"c399ec88","getNonce()":"d087d288","initialize(address)":"c4d66de8","onERC1155BatchReceived(address,address,uint256[],uint256[],bytes)":"bc197c81","onERC1155Received(address,address,uint256,uint256,bytes)":"f23a6e61","onERC721Received(address,address,uint256,bytes)":"150b7a02","owner()":"8da5cb5b","proxiableUUID()":"52d1902d","supportsInterface(bytes4)":"01ffc9a7","tokensReceived(address,address,address,uint256,bytes,bytes)":"0023de29","upgradeTo(address)":"3659cfe6","upgradeToAndCall(address,bytes)":"4f1ef286","validateUserOp((address,uint256,bytes,bytes,uint256,uint256,uint256,uint256,uint256,bytes,bytes),bytes32,uint256)":"3a871cdd","withdrawDepositTo(address,uint256)":"4d44560d"}}}}}