{"contracts/core/SenderCreator.sol":{"SenderCreator":{"abi":[{"inputs":[{"internalType":"bytes","name":"initCode","type":"bytes"}],"name":"createSender","outputs":[{"internalType":"address","name":"sender","type":"address"}],"stateMutability":"nonpayable","type":"function"}],"evm":{"bytecode":{"linkReferences":{},"object":"60808060405234610016576101f8908161001c8239f35b600080fdfe6080604052600436101561001257600080fd5b6000803560e01c63570e1a361461002857600080fd5b346100c95760207ffffffffffffffffffffffffffffffffffffffffffffffffffffffffffffffffc3601126100c95760043567ffffffffffffffff918282116100c957366023830112156100c95781600401359283116100c95736602484840101116100c9576100c561009e84602485016100fb565b60405173ffffffffffffffffffffffffffffffffffffffff90911681529081906020820190565b0390f35b80fd5b7f4e487b7100000000000000000000000000000000000000000000000000000000600052604160045260246000fd5b90806014116101b85767ffffffffffffffff917fffffffffffffffffffffffffffffffffffffffffffffffffffffffffffffffec82018381116101bd57604051937fffffffffffffffffffffffffffffffffffffffffffffffffffffffffffffffe0603f81600b8701160116850190858210908211176101bd57604052808452602084019036848401116101b8576020946000600c819682946014880187378301015251923560601c5af19060005191156101b257565b60009150565b600080fd5b6100cc56fea26469706673582212208340f25e0dffdc91c82d2a3e9b3ca8fcabc8741e7ff0b05b86259aceb4ee722064736f6c63430008120033","opcodes":"PUSH1 0x80 DUP1 PUSH1 0x40 MSTORE CALLVALUE PUSH2 0x16 JUMPI PUSH2 0x1F8 SWAP1 DUP2 PUSH2 0x1C DUP3 CODECOPY RETURN JUMPDEST PUSH1 0x0 DUP1 REVERT INVALID PUSH1 0x80 PUSH1 0x40 MSTORE PUSH1 0x4 CALLDATASIZE LT ISZERO PUSH2 0x12 JUMPI PUSH1 0x0 DUP1 REVERT JUMPDEST PUSH1 0x0 DUP1 CALLDATALOAD PUSH1 0xE0 SHR PUSH4 0x570E1A36 EQ PUSH2 0x28 JUMPI PUSH1 0x0 DUP1 REVERT JUMPDEST CALLVALUE PUSH2 0xC9 JUMPI PUSH1 0x20 PUSH32 0xFFFFFFFFFFFFFFFFFFFFFFFFFFFFFFFFFFFFFFFFFFFFFFFFFFFFFFFFFFFFFFFC CALLDATASIZE ADD SLT PUSH2 0xC9 JUMPI PUSH1 0x4 CALLDATALOAD PUSH8 0xFFFFFFFFFFFFFFFF SWAP2 DUP3 DUP3 GT PUSH2 0xC9 JUMPI CALLDATASIZE PUSH1 0x23 DUP4 ADD SLT ISZERO PUSH2 0xC9 JUMPI DUP2 PUSH1 0x4 ADD CALLDATALOAD SWAP3 DUP4 GT PUSH2 0xC9 JUMPI CALLDATASIZE PUSH1 0x24 DUP5 DUP5 ADD ADD GT PUSH2 0xC9 JUMPI PUSH2 0xC5 PUSH2 0x9E DUP5 PUSH1 0x24 DUP6 ADD PUSH2 0xFB JUMP JUMPDEST PUSH1 0x40 MLOAD PUSH20 0xFFFFFFFFFFFFFFFFFFFFFFFFFFFFFFFFFFFFFFFF SWAP1 SWAP2 AND DUP2 MSTORE SWAP1 DUP2 SWAP1 PUSH1 0x20 DUP3 ADD SWAP1 JUMP JUMPDEST SUB SWAP1 RETURN JUMPDEST DUP1 REVERT JUMPDEST PUSH32 0x4E487B7100000000000000000000000000000000000000000000000000000000 PUSH1 0x0 MSTORE PUSH1 0x41 PUSH1 0x4 MSTORE PUSH1 0x24 PUSH1 0x0 REVERT JUMPDEST SWAP1 DUP1 PUSH1 0x14 GT PUSH2 0x1B8 JUMPI PUSH8 0xFFFFFFFFFFFFFFFF SWAP2 PUSH32 0xFFFFFFFFFFFFFFFFFFFFFFFFFFFFFFFFFFFFFFFFFFFFFFFFFFFFFFFFFFFFFFEC DUP3 ADD DUP4 DUP2 GT PUSH2 0x1BD JUMPI PUSH1 0x40 MLOAD SWAP4 PUSH32 0xFFFFFFFFFFFFFFFFFFFFFFFFFFFFFFFFFFFFFFFFFFFFFFFFFFFFFFFFFFFFFFE0 PUSH1 0x3F DUP2 PUSH1 0xB DUP8 ADD AND ADD AND DUP6 ADD SWAP1 DUP6 DUP3 LT SWAP1 DUP3 GT OR PUSH2 0x1BD JUMPI PUSH1 0x40 MSTORE DUP1 DUP5 MSTORE PUSH1 0x20 DUP5 ADD SWAP1 CALLDATASIZE DUP5 DUP5 ADD GT PUSH2 0x1B8 JUMPI PUSH1 0x20 SWAP5 PUSH1 0x0 PUSH1 0xC DUP2 SWAP7 DUP3 SWAP5 PUSH1 0x14 DUP9 ADD DUP8 CALLDATACOPY DUP4 ADD ADD MSTORE MLOAD SWAP3 CALLDATALOAD PUSH1 0x60 SHR GAS CALL SWAP1 PUSH1 0x0 MLOAD SWAP2 ISZERO PUSH2 0x1B2 JUMPI JUMP JUMPDEST PUSH1 0x0 SWAP2 POP JUMP JUMPDEST PUSH1 0x0 DUP1 REVERT JUMPDEST PUSH2 0xCC JUMP INVALID LOG2 PUSH5 0x6970667358 0x22 SLT KECCAK256 DUP4 BLOCKHASH CALLCODE 0x5E 0xD SELFDESTRUCT 0xDC SWAP2 0xC8 0x2D 0x2A RETURNDATACOPY SWAP12 EXTCODECOPY 0xA8 0xFC 0xAB 0xC8 PUSH21 0x1E7FF0B05B86259ACEB4EE722064736F6C63430008 SLT STOP CALLER "},"methodIdentifiers":{"createSender(bytes)":"570e1a36"}}}}}