{
  "_format": "hh-sol-artifact-1",
  "contractName": "TestExpirePaymaster",
  "sourceName": "contracts/test/TestExpirePaymaster.sol",
  "abi": [
    {
      "inputs": [
        {
          "internalType": "contract IEntryPoint",
          "name": "_entryPoint",
          "type": "address"
        }
      ],
      "stateMutability": "nonpayable",
      "type": "constructor"
    },
    {
      "anonymous": false,
      "inputs": [
        {
          "indexed": true,
          "internalType": "address",
          "name": "previousOwner",
          "type": "address"
        },
        {
          "indexed": true,
          "internalType": "address",
          "name": "newOwner",
          "type": "address"
        }
      ],
      "name": "OwnershipTransferred",
      "type": "event"
    },
    {
      "inputs": [
        {
          "internalType": "uint32",
          "name": "unstakeDelaySec",
          "type": "uint32"
        }
      ],
      "name": "addStake",
      "outputs": [],
      "stateMutability": "payable",
      "type": "function"
    },
    {
      "inputs": [],
      "name": "deposit",
      "outputs": [],
      "stateMutability": "payable",
      "type": "function"
    },
    {
      "inputs": [],
      "name": "entryPoint",
      "outputs": [
        {
          "internalType": "contract IEntryPoint",
          "name": "",
          "type": "address"
        }
      ],
      "stateMutability": "view",
      "type": "function"
    },
    {
      "inputs": [],
      "name": "getDeposit",
      "outputs": [
        {
          "internalType": "uint256",
          "name": "",
          "type": "uint256"
        }
      ],
      "stateMutability": "view",
      "type": "function"
    },
    {
      "inputs": [],
      "name": "owner",
      "outputs": [
        {
          "internalType": "address",
          "name": "",
          "type": "address"
        }
      ],
      "stateMutability": "view",
      "type": "function"
    },
    {
      "inputs": [
        {
          "internalType": "enum IPaymaster.PostOpMode",
          "name": "mode",
          "type": "uint8"
        },
        {
          "internalType": "bytes",
          "name": "context",
          "type": "bytes"
        },
        {
          "internalType": "uint256",
          "name": "actualGasCost",
          "type": "uint256"
        }
      ],
      "name": "postOp",
      "outputs": [],
      "stateMutability": "nonpayable",
      "type": "function"
    },
    {
      "inputs": [],
      "name": "renounceOwnership",
      "outputs": [],
      "stateMutability": "nonpayable",
      "type": "function"
    },
    {
      "inputs": [
        {
          "internalType": "address",
          "name": "newOwner",
          "type": "address"
        }
      ],
      "name": "transferOwnership",
      "outputs": [],
      "stateMutability": "nonpayable",
      "type": "function"
    },
    {
      "inputs": [],
      "name": "unlockStake",
      "outputs": [],
      "stateMutability": "nonpayable",
      "type": "function"
    },
    {
      "inputs": [
        {
          "components": [
            {
              "internalType": "address",
              "name": "sender",
              "type": "address"
            },
            {
              "internalType": "uint256",
              "name": "nonce",
              "type": "uint256"
            },
            {
              "internalType": "bytes",
              "name": "initCode",
              "type": "bytes"
            },
            {
              "internalType": "bytes",
              "name": "callData",
              "type": "bytes"
            },
            {
              "internalType": "uint256",
              "name": "callGasLimit",
              "type": "uint256"
            },
            {
              "internalType": "uint256",
              "name": "verificationGasLimit",
              "type": "uint256"
            },
            {
              "internalType": "uint256",
              "name": "preVerificationGas",
              "type": "uint256"
            },
            {
              "internalType": "uint256",
              "name": "maxFeePerGas",
              "type": "uint256"
            },
            {
              "internalType": "uint256",
              "name": "maxPriorityFeePerGas",
              "type": "uint256"
            },
            {
              "internalType": "bytes",
              "name": "paymasterAndData",
              "type": "bytes"
            },
            {
              "internalType": "bytes",
              "name": "signature",
              "type": "bytes"
            }
          ],
          "internalType": "struct UserOperation",
          "name": "userOp",
          "type": "tuple"
        },
        {
          "internalType": "bytes32",
          "name": "userOpHash",
          "type": "bytes32"
        },
        {
          "internalType": "uint256",
          "name": "maxCost",
          "type": "uint256"
        }
      ],
      "name": "validatePaymasterUserOp",
      "outputs": [
        {
          "internalType": "bytes",
          "name": "context",
          "type": "bytes"
        },
        {
          "internalType": "uint256",
          "name": "validationData",
          "type": "uint256"
        }
      ],
      "stateMutability": "nonpayable",
      "type": "function"
    },
    {
      "inputs": [
        {
          "internalType": "address payable",
          "name": "withdrawAddress",
          "type": "address"
        }
      ],
      "name": "withdrawStake",
      "outputs": [],
      "stateMutability": "nonpayable",
      "type": "function"
    },
    {
      "inputs": [
        {
          "internalType": "address payable",
          "name": "withdrawAddress",
          "type": "address"
        },
        {
          "internalType": "uint256",
          "name": "amount",
          "type": "uint256"
        }
      ],
      "name": "withdrawTo",
      "outputs": [],
      "stateMutability": "nonpayable",
      "type": "function"
    }
  ],
  "bytecode": "0x60a060405234801561001057600080fd5b50604051610df0380380610df083398101604081905261002f9161009b565b806100393361004b565b6001600160a01b0316608052506100cb565b600080546001600160a01b038381166001600160a01b0319831681178455604051919092169283917f8be0079c531659141344cd1fd0a4f28419497f9722a3daafe3b4186f6b6457e09190a35050565b6000602082840312156100ad57600080fd5b81516001600160a01b03811681146100c457600080fd5b9392505050565b608051610cd961011760003960008181610199015281816102a50152818161036f015281816103eb015281816104b201528181610542015281816105f5015261083c0152610cd96000f3fe6080604052600436106100c75760003560e01c8063bb9fe6bf11610074578063d0e30db01161004e578063d0e30db014610213578063f2fde38b1461021b578063f465c77e1461023b57600080fd5b8063bb9fe6bf146101bb578063c23a5cea146101d0578063c399ec88146101f057600080fd5b80638da5cb5b116100a55780638da5cb5b14610116578063a9a2340914610167578063b0d691fe1461018757600080fd5b80630396cb60146100cc578063205c2878146100e1578063715018a614610101575b600080fd5b6100df6100da3660046109b8565b610269565b005b3480156100ed57600080fd5b506100df6100fc366004610a07565b61031b565b34801561010d57600080fd5b506100df6103b3565b34801561012257600080fd5b5060005473ffffffffffffffffffffffffffffffffffffffff165b60405173ffffffffffffffffffffffffffffffffffffffff90911681526020015b60405180910390f35b34801561017357600080fd5b506100df610182366004610a33565b6103c7565b34801561019357600080fd5b5061013d7f000000000000000000000000000000000000000000000000000000000000000081565b3480156101c757600080fd5b506100df6103e1565b3480156101dc57600080fd5b506100df6101eb366004610ac2565b610465565b3480156101fc57600080fd5b50610205610511565b60405190815260200161015e565b6100df6105c7565b34801561022757600080fd5b506100df610236366004610ac2565b61064f565b34801561024757600080fd5b5061025b610256366004610adf565b61070b565b60405161015e929190610b33565b61027161072e565b6040517f0396cb6000000000000000000000000000000000000000000000000000000000815263ffffffff821660048201527f000000000000000000000000000000000000000000000000000000000000000073ffffffffffffffffffffffffffffffffffffffff1690630396cb609034906024016000604051808303818588803b1580156102ff57600080fd5b505af1158015610313573d6000803e3d6000fd5b505050505050565b61032361072e565b6040517f205c287800000000000000000000000000000000000000000000000000000000815273ffffffffffffffffffffffffffffffffffffffff8381166004830152602482018390527f0000000000000000000000000000000000000000000000000000000000000000169063205c287890604401600060405180830381600087803b1580156102ff57600080fd5b6103bb61072e565b6103c560006107af565b565b6103cf610824565b6103db848484846108c3565b50505050565b6103e961072e565b7f000000000000000000000000000000000000000000000000000000000000000073ffffffffffffffffffffffffffffffffffffffff1663bb9fe6bf6040518163ffffffff1660e01b8152600401600060405180830381600087803b15801561045157600080fd5b505af11580156103db573d6000803e3d6000fd5b61046d61072e565b6040517fc23a5cea00000000000000000000000000000000000000000000000000000000815273ffffffffffffffffffffffffffffffffffffffff82811660048301527f0000000000000000000000000000000000000000000000000000000000000000169063c23a5cea90602401600060405180830381600087803b1580156104f657600080fd5b505af115801561050a573d6000803e3d6000fd5b5050505050565b6040517f70a082310000000000000000000000000000000000000000000000000000000081523060048201526000907f000000000000000000000000000000000000000000000000000000000000000073ffffffffffffffffffffffffffffffffffffffff16906370a0823190602401602060405180830381865afa15801561059e573d6000803e3d6000fd5b505050506040513d601f19601f820116820180604052508101906105c29190610ba6565b905090565b6040517fb760faf90000000000000000000000000000000000000000000000000000000081523060048201527f000000000000000000000000000000000000000000000000000000000000000073ffffffffffffffffffffffffffffffffffffffff169063b760faf99034906024016000604051808303818588803b1580156104f657600080fd5b61065761072e565b73ffffffffffffffffffffffffffffffffffffffff81166106ff576040517f08c379a000000000000000000000000000000000000000000000000000000000815260206004820152602660248201527f4f776e61626c653a206e6577206f776e657220697320746865207a65726f206160448201527f646472657373000000000000000000000000000000000000000000000000000060648201526084015b60405180910390fd5b610708816107af565b50565b60606000610717610824565b610722858585610925565b91509150935093915050565b60005473ffffffffffffffffffffffffffffffffffffffff1633146103c5576040517f08c379a000000000000000000000000000000000000000000000000000000000815260206004820181905260248201527f4f776e61626c653a2063616c6c6572206973206e6f7420746865206f776e657260448201526064016106f6565b6000805473ffffffffffffffffffffffffffffffffffffffff8381167fffffffffffffffffffffffff0000000000000000000000000000000000000000831681178455604051919092169283917f8be0079c531659141344cd1fd0a4f28419497f9722a3daafe3b4186f6b6457e09190a35050565b3373ffffffffffffffffffffffffffffffffffffffff7f000000000000000000000000000000000000000000000000000000000000000016146103c5576040517f08c379a000000000000000000000000000000000000000000000000000000000815260206004820152601560248201527f53656e646572206e6f7420456e747279506f696e74000000000000000000000060448201526064016106f6565b6040517f08c379a000000000000000000000000000000000000000000000000000000000815260206004820152600d60248201527f6d757374206f766572726964650000000000000000000000000000000000000060448201526064016106f6565b606060008080610939610120880188610bbf565b610947916014908290610c2b565b8101906109549190610c70565b9150915061096460008284610980565b6040805160208101909152600081529890975095505050505050565b600060d08265ffffffffffff16901b60a08465ffffffffffff16901b856109a85760006109ab565b60015b60ff161717949350505050565b6000602082840312156109ca57600080fd5b813563ffffffff811681146109de57600080fd5b9392505050565b73ffffffffffffffffffffffffffffffffffffffff8116811461070857600080fd5b60008060408385031215610a1a57600080fd5b8235610a25816109e5565b946020939093013593505050565b60008060008060608587031215610a4957600080fd5b843560038110610a5857600080fd5b9350602085013567ffffffffffffffff80821115610a7557600080fd5b818701915087601f830112610a8957600080fd5b813581811115610a9857600080fd5b886020828501011115610aaa57600080fd5b95986020929092019750949560400135945092505050565b600060208284031215610ad457600080fd5b81356109de816109e5565b600080600060608486031215610af457600080fd5b833567ffffffffffffffff811115610b0b57600080fd5b84016101608187031215610b1e57600080fd5b95602085013595506040909401359392505050565b604081526000835180604084015260005b81811015610b615760208187018101516060868401015201610b44565b5060006060828501015260607fffffffffffffffffffffffffffffffffffffffffffffffffffffffffffffffe0601f8301168401019150508260208301529392505050565b600060208284031215610bb857600080fd5b5051919050565b60008083357fffffffffffffffffffffffffffffffffffffffffffffffffffffffffffffffe1843603018112610bf457600080fd5b83018035915067ffffffffffffffff821115610c0f57600080fd5b602001915036819003821315610c2457600080fd5b9250929050565b60008085851115610c3b57600080fd5b83861115610c4857600080fd5b5050820193919092039150565b803565ffffffffffff81168114610c6b57600080fd5b919050565b60008060408385031215610c8357600080fd5b610c8c83610c55565b9150610c9a60208401610c55565b9050925092905056fea26469706673582212200ce7aa495610ee8b48ecb237e51da7605a2cedcc4e533c0b22cd709777fbcfd464736f6c63430008120033",
  "linkReferences": {},
  "deployedLinkReferences": {}
}