{
  "_format": "hh-sol-artifact-1",
  "contractName": "MaliciousAccount",
  "sourceName": "contracts/test/MaliciousAccount.sol",
  "abi": [
    {
      "inputs": [
        {
          "internalType": "contract IEntryPoint",
          "name": "_ep",
          "type": "address"
        }
      ],
      "stateMutability": "payable",
      "type": "constructor"
    },
    {
      "inputs": [
        {
          "components": [
            {
              "internalType": "address",
              "name": "sender",
              "type": "address"
            },
            {
              "internalType": "uint256",
              "name": "nonce",
              "type": "uint256"
            },
            {
              "internalType": "bytes",
              "name": "initCode",
              "type": "bytes"
            },
            {
              "internalType": "bytes",
              "name": "callData",
              "type": "bytes"
            },
            {
              "internalType": "uint256",
              "name": "callGasLimit",
              "type": "uint256"
            },
            {
              "internalType": "uint256",
              "name": "verificationGasLimit",
              "type": "uint256"
            },
            {
              "internalType": "uint256",
              "name": "preVerificationGas",
              "type": "uint256"
            },
            {
              "internalType": "uint256",
              "name": "maxFeePerGas",
              "type": "uint256"
            },
            {
              "internalType": "uint256",
              "name": "maxPriorityFeePerGas",
              "type": "uint256"
            },
            {
              "internalType": "bytes",
              "name": "paymasterAndData",
              "type": "bytes"
            },
            {
              "internalType": "bytes",
              "name": "signature",
              "type": "bytes"
            }
          ],
          "internalType": "struct UserOperation",
          "name": "userOp",
          "type": "tuple"
        },
        {
          "internalType": "bytes32",
          "name": "",
          "type": "bytes32"
        },
        {
          "internalType": "uint256",
          "name": "missingAccountFunds",
          "type": "uint256"
        }
      ],
      "name": "validateUserOp",
      "outputs": [
        {
          "internalType": "uint256",
          "name": "validationData",
          "type": "uint256"
        }
      ],
      "stateMutability": "nonpayable",
      "type": "function"
    }
  ],
  "bytecode": "0x60806040526040516103e93803806103e983398101604081905261002291610047565b600080546001600160a01b0319166001600160a01b0392909216919091179055610077565b60006020828403121561005957600080fd5b81516001600160a01b038116811461007057600080fd5b9392505050565b610363806100866000396000f3fe608060405234801561001057600080fd5b506004361061002b5760003560e01c80633a871cdd14610030575b600080fd5b61004361003e3660046101be565b610055565b60405190815260200160405180910390f35b600080546040517fb760faf900000000000000000000000000000000000000000000000000000000815230600482015273ffffffffffffffffffffffffffffffffffffffff9091169063b760faf99084906024016000604051808303818588803b1580156100c257600080fd5b505af11580156100d6573d6000803e3d6000fd5b50505050506000848061014001906100ee9190610212565b8101906100fb919061027e565b9050600060c086013561011660a088013560808901356102c6565b61012091906102c6565b9050600061012e82866102df565b905060006101416101008901358361031a565b90508381146101b0576040517f08c379a000000000000000000000000000000000000000000000000000000000815260206004820152601d60248201527f5265766572742061667465722066697273742076616c69646174696f6e000000604482015260640160405180910390fd5b506000979650505050505050565b6000806000606084860312156101d357600080fd5b833567ffffffffffffffff8111156101ea57600080fd5b840161016081870312156101fd57600080fd5b95602085013595506040909401359392505050565b60008083357fffffffffffffffffffffffffffffffffffffffffffffffffffffffffffffffe184360301811261024757600080fd5b83018035915067ffffffffffffffff82111561026257600080fd5b60200191503681900382131561027757600080fd5b9250929050565b60006020828403121561029057600080fd5b5035919050565b7f4e487b7100000000000000000000000000000000000000000000000000000000600052601160045260246000fd5b808201808211156102d9576102d9610297565b92915050565b600082610315577f4e487b7100000000000000000000000000000000000000000000000000000000600052601260045260246000fd5b500490565b818103818111156102d9576102d961029756fea2646970667358221220f3eeaa71339d444d543494e515f4c3b8f988ad3cd6576f80a0f97f1ea9c06ce164736f6c63430008120033",
  "linkReferences": {},
  "deployedLinkReferences": {}
}